:10000000C5C00000EBC00000E9C000000C945D0812
:100010000C945D080C945D08E1C00000DFC0000096
:10002000DDC00000DBC00000D9C00000D7C0000068
:10003000D5C00000D3C00000D1C00000CFC0000078
:100040000C945E14CBC000000C94B2110C94E4111B
:10005000C5C00000C3C00000C1C00000BFC0000098
:100060000C94D90ABBC0000007634236B79BD8A7DF
:100070001A39685618AEBAAB558C1D3CB7CC5763CD
:10008000BD6DEDFD753EF6177231BF000000803F7B
:1000900008000000BE922449123EABAAAA2ABECD97
:1000A000CCCC4C3E00000080BEABAAAAAA3E000009
:1000B0000000BF000000803F000000000008417801
:1000C000D3BB4387D1133D190E3CC3BD4282AD2B38
:1000D0003E68EC8276BED98FE1A93E4C80EFFFBE30
:1000E00001C4FF7F3F00000000004E414E494E49D1
:1000F0005459494E46CDCCCC3D0AD7233C17B7D1F5
:100100003877CC2B329595E6241FB14F0A0000209A
:10011000410000C84200401C4620BCBE4CCA1B0E19
:100120005AAEC59D740000000800020100000304DF
:100130000700000000000000000102040810204039
:1001400080010204081020010204081020040404A5
:100150000404040404020202020202030303030370
:1001600003000000002300260029000000000025F5
:100170000028002B0000000000240027002A0000B7
:10018000F801BF06260D1212FE01F20611241FBE51
:10019000CFEFD8E0DEBFCDBF11E0A0E0B1E0E2E3F9
:1001A000F9E302C005900D92A23BB107D9F724E014
:1001B000A2EBB1E001C01D92A330B207E1F710E05D
:1001C000C4ECD0E004C02197FE010E947918C03C25
:1001D000D107C9F70E9440120C948D1C11CF0895CD
:1001E000EF92FF920F931F93CF93DF9300D000D035
:1001F00000D0CDB7DEB7E62EF42E122F40E855E240
:1002000060E070E082EB91E00E94580966E071E0E6
:10021000CE0101960E944916EE2031F06EE071E0A9
:10022000CE0101960E940717FF2031F062E171E0D4
:10023000CE0101960E940717112331F066E171E0AB
:10024000CE0101960E940717002331F06AE171E0A8
:10025000CE0101960E940717BE016F5F7F4F82EBB0
:1002600091E00E94A512CE0101960E94E215269609
:100270000FB6F894DEBF0FBECDBFDF91CF911F91B7
:100280000F91FF90EF9008951F93CF93DF9300D0CD
:1002900000D000D0CDB7DEB7162F6EE171E0CE01F1
:1002A00001960E944916112319F064E271E002C020
:1002B00067E271E0CE0101960E940717BE016F5FF1
:1002C0007F4F82EB91E00E94A512CE0101960E9421
:1002D000E21526960FB6F894DEBF0FBECDBFDF91B4
:1002E000CF911F9108951F93CF93DF9300D000D03B
:1002F00000D0CDB7DEB7162F6BE271E0CE010196CC
:100300000E944916112319F064E271E002C067E20D
:1003100071E0CE0101960E940717BE016F5F7F4F0B
:1003200082EB91E00E94A512CE0101960E94E21597
:1003300026960FB6F894DEBF0FBECDBFDF91CF91EA
:100340001F9108950F931F93CF93DF9300D000D098
:1003500000D0CDB7DEB78B016BE371E0CE01019623
:100360000E944916B801CE0101960E940117BE01F4
:100370006F5F7F4F82EB91E00E94A512CE01019644
:100380000E94E21526960FB6F894DEBF0FBECDBFD1
:10039000DF91CF911F910F9108950F931F93CF93EA
:1003A000DF9300D000D000D0CDB7DEB78C0140E89D
:1003B00055E260E070E082EB91E07AD760E471E0B2
:1003C000CE0101960E944916BE016F5F7F4FC801A2
:1003D000B9DFCE0101960E94E21526960FB6F89479
:1003E000DEBF0FBECDBFDF91CF911F910F9108955A
:1003F00020E04BE06AE082EB91E031C782EB91E0D4
:10040000D6C6CF93DF93FC0188E0DF01C82F1D9291
:10041000CA95E9F7DF011896ED0119928A95E9F777
:10042000148E158E168E178E10A280E090E0A0E834
:10043000BFE3808B918BA28BB38B848B958BA68B28
:10044000B78B808F918FA28FB38FDF91CF9108955B
:10045000FC01858D0895FC01868D0895FC01878D32
:100460000895FC0180A10895CF93DF93EA0170E025
:1004700085E093E00E94AF0C67E471E085E093E0D3
:100480000E949A124AE050E0BE0185E093E00E948B
:100490005E1385E093E0DF91CF910C94240DCF9211
:1004A000DF92EF92FF920F931F93CF93DF93EC01B4
:1004B0006A017901AB0161E0D7DFA60162E0CE01FC
:1004C000D3DFA70163E0CE01CFDFA80164E0CE0156
:1004D000DF91CF911F910F91FF90EF90DF90CF9020
:1004E000C3CF4F925F926F927F92AF92BF92CF92A3
:1004F000DF92EF92FF920F931F93CF93DF9300D081
:1005000000D0CDB7DEB729013A01E982FA820B8328
:100510001C8370E085E093E00E94AF0C6AE471E018
:1005200085E093E00E949A1222E030E0B301A2013C
:1005300085E093E00E945D146EE471E085E093E055
:100540000E949A1222E030E049815A816B817C81BD
:1005500085E093E00E945D1462E571E085E093E040
:100560000E949A1222E030E0B601A50185E093E0F6
:100570000E945D1485E093E00E94A21285E093E062
:100580000F900F900F900F90DF91CF911F910F91CF
:10059000FF90EF90DF90CF90BF90AF907F906F90E3
:1005A0005F904F900C94240DAF92BF92CF92DF9248
:1005B000EF92FF920F931F93CF93DF93EC01A88CE0
:1005C000B98CCA8CDB8CEC88FD880E891F89288940
:1005D00039894A895B8961E084DFA88CB98CCA8C2F
:1005E000DB8CEC88FD880E891F89288939894A8926
:1005F0005B8962E0CE0175DFA88CB98CCA8CDB8C7C
:10060000EC88FD880E891F89288939894A895B8988
:1006100063E0CE0166DFA88CB98CCA8CDB8CEC88D9
:10062000FD880E891F89288939894A895B8964E098
:10063000CE0157DFDF91CF911F910F91FF90EF9087
:10064000DF90CF90BF90AF900895CF93DF931F922C
:10065000CDB7DEB785E093E069830E949C0C698189
:1006600070E041E050E085E093E00E94220D85E0DB
:1006700093E00E94030C892B39F085E093E00F9002
:10068000DF91CF910C940B0C0F90DF91CF910895D7
:10069000AF92BF92CF92DF92EF92FF920F931F9390
:1006A000CF93DF93EC0185E093E00E949C0C66E51C
:1006B00071E087E593E00E94B51286E0A82EB12C88
:1006C000C88CD98CEA8CFB8C0C891D892E893F89BA
:1006D000488959896A897B89CE0166DF69E571E0BD
:1006E00087E593E00E94B51261E0CE01AEDF6C01B8
:1006F00062E0CE01AADF7C0163E0CE01A6DF8C01BF
:1007000064E0CE01A2DF9C0181E0C816D10469F447
:1007100082E0E816F10449F40330110531F4243085
:10072000310519F481E08C8F04C01C8ECA94CD2849
:1007300011F481E08D8F82E0E816F10411F481E07C
:100740008E8F0330110511F481E08F8F2430310535
:1007500011F481E088A381E0A81AB10809F0B0CFB4
:100760006DE571E087E593E0DF91CF911F910F91E7
:10077000FF90EF90DF90CF90BF90AF900C94B512A8
:10078000CF93DF93EC0165EA71E00E94491665EAB8
:1007900071E0CE0106960E94491665EA71E0CE012D
:1007A0000C960E9449161B8A1A8A1D8A1C8A1F8A67
:1007B0001E8A61E082E00E94761561E082E0DF91AE
:1007C000CF910C94B2158F929F92AF92BF92CF921D
:1007D000DF92EF92FF920F931F93CF93DF9300D09E
:1007E00000D000D0CDB7DEB77C018B01CB010E94D9
:1007F000B91761E671E0CE0101960E944916BE016B
:100800006F5F7F4FC8010E9472174C01CE010196A5
:100810000E94E21564E671E0CE0101960E9449163D
:10082000BE016F5F7F4FC8010E9472175C01CE014D
:1008300001960E94E21562E371E0CE0101960E94EA
:100840004916BE016F5F7F4FC8010E9472176C018D
:10085000CE0101960E94E215A4014E5F5F4F950103
:10086000B801CE0101960E947517BE016F5F7F4FE0
:10087000C7010E94B516CE0101960E94E215A5019E
:100880004E5F5F4F9601B801CE0101960E94751729
:10089000570186E0A80EB11CBE016F5F7F4FC501F6
:1008A0000E94B516CE0101960E94E215F80124813E
:1008B0003581A6014E5F5F4FB801CE0101960E94BF
:1008C00075178701045F1F4FBE016F5F7F4FC8011F
:1008D0000E94B516CE0101960E94E215C7010E9442
:1008E000CA170E94F60DF701738B628BC5010E9437
:1008F000CA170E94F60DF701758B648BC8010E9420
:10090000CA170E94F60DF701778B668B26960FB6F5
:10091000F894DEBF0FBECDBFDF91CF911F910F9135
:10092000FF90EF90DF90CF90BF90AF909F908F900F
:10093000089580E090E008954F925F926F927F92C9
:10094000AF92BF92CF92DF92EF92FF920F931F93DD
:10095000CF93DF93EC015B01CA01B9012AA33BA34A
:100960004CA35DA32BED3FE049E450E40E94B50E9B
:100970006C877D878E879F87B9A2A8A2EEA2FFA26F
:1009800008A719A7B601DD0C880B990B0E94290E48
:100990009B01AC0160E070E080E090E40E94180FE1
:1009A00020E030E040E85FE30E94290D6AA77BA7C2
:1009B0008CA79DA7DF91CF911F910F91FF90EF9092
:1009C000DF90CF90BF90AF907F906F905F904F90EF
:1009D00008952F923F924F925F926F927F928F92E3
:1009E0009F92AF92BF92CF92DF92EF92FF920F93BE
:1009F0001F93CF93DF93CDB7DEB760970FB6F89410
:100A0000DEBF0FBECDBF1C01CB01BA0148015901A9
:100A100020E030E040E752E40E94B50E69877A8713
:100A20008B879C87D1016D937D938D939C931397B6
:100A300020E030E040E752E4C501B4010E94B50E69
:100A40002B013C01F101648375838683978320E049
:100A500030E040E752E4C701B6010E94B50ED10173
:100A600018966D937D938D939C931B9796962D91DD
:100A70003D914D915C9199970E94B50E6D877E874F
:100A80008F87988BF101608B718B828B938B848421
:100A90009584A684B784A501940169857A858B85A0
:100AA0009C850E948E0D6B017C01D10154966D9343
:100AB0007D938D939C935797A5019401C301B20137
:100AC0000E948E0D2B013C01F101608F718F828F8E
:100AD000938FA50194016D857E858F8598890E94ED
:100AE0008E0D4B015C01D1015C966D937D938D93CE
:100AF0009C935F97A3019201C701B601AAD76987AA
:100B00007A878B879C87A3019201C701B601A2D780
:100B10006B017C01A501940169857A858B859C8593
:100B200098D70E94F60D662E7A836983A5019401F9
:100B3000C701B6018FD70E94F60D762E7C836B839A
:100B4000A5019401C701B60184D70E94F60DF62EC7
:100B50007E836D83A501940169857A858B859C854B
:100B600079D70E94F60D862F262F372F38872F83AF
:100B7000262D3A81472D5C816F2D7E819885609668
:100B80000FB6F894DEBF0FBECDBFDF91CF911F919E
:100B90000F91FF90EF90DF90CF90BF90AF909F901C
:100BA0008F907F906F905F904F903F902F9008951F
:100BB0000F93CF93DF9300D0CDB7DEB726E040E8A8
:100BC00055E260E070E087E593E00E944F1168EE27
:100BD00073E080E090E00E94D91467E671E087E559
:100BE00093E00E94B51289E192E0D7DB64E670E001
:100BF00080E090E00E94D91482E392E049DD82E334
:100C000092E02FDC082F82E392E028DC282F82E399
:100C100092E02A8320DC482F82E392E0498318DCAB
:100C2000682F2A81498189E192E0DADA68EE73E07F
:100C300080E090E00F900F90DF91CF910F910C9496
:100C4000D914CF92DF92EF92FF920F931F93CF931D
:100C5000DF93CDB7DEB764970FB6F894DEBF0FBE53
:100C6000CDBFC090DF01D090E001E090E101F090B5
:100C7000E2010091E3011091E4012091E50130913E
:100C8000E6014091E7015091E8016091E90170911E
:100C9000EA018BEE91E09DDE29833A834B835C83EE
:100CA0006D837E838F8398870F8118852D813E8188
:100CB0004B815C8169817A8182E392E0F0DB8091F3
:100CC000D1019091D201853F91400CF440C065EA7A
:100CD00071E0CE010F960E9449160E94A814AB0144
:100CE000BC01CE010F960E94271761E089E192E0D6
:100CF000FADA60E089E192E0C7DA01E020E041E061
:100D000061E089E192E06CDABE01615F7F4FCE0164
:100D100009960E94AD16BE01675F7F4F89E192E0A0
:100D200011DBCE0109960E94E2151092D2011092B9
:100D3000D1010E94A814AB01BC012AE030E087E594
:100D400093E00E947F13CE010F960E94E2158091DE
:100D5000D1019091D20101969093D2018093D1015B
:100D600064960FB6F894DEBF0FBECDBFDF91CF9172
:100D70001F910F91FF90EF90DF90CF900895CF9249
:100D8000DF92EF92FF920F931F9382E392E039DBA1
:100D90008AE192E0F5DC89E192E021DA88E0C82E70
:100DA000D12C1DECE12E1CECF12E0CEC1EE326E9FF
:100DB00033E44BE85DE36AE570E08BEE91E0BCDD87
:100DC00065EA71E089ED91E00E94491665EA71E0FB
:100DD00083ED91E01F910F91FF90EF90DF90CF9006
:100DE0000C94491683ED91E00E94E21589ED91E0A3
:100DF0000E94E21586E292E00E94E21580E292E013
:100E00000E94E2158AE192E00C94E215CF93DF9301
:100E100000D000D000D0CDB7DEB787E593E00E94C8
:100E20007D10892B09F45DC087E593E00E9497103F
:100E30008A3009F050C069ED71E087E593E00E94C7
:100E4000A51269ED71E0CE0101960E94AD16BE01BA
:100E50006F5F7F4F8AE192E0B6DCCE0101960E947F
:100E6000E21560912C0270912D02072E000C880B68
:100E7000990BEFD66093E7017093E8018093E90145
:100E80009093EA0160912E0270912F02072E000CC0
:100E9000880B990BDED66093E3017093E401809395
:100EA000E5019093E6016091300270913102072EC6
:100EB000000C880B990BCDD66093DF017093E00195
:100EC0008093E1019093E20165EA71E089ED91E0A0
:100ED0000E94C016A2CF682F89ED91E00E941517DD
:100EE0009CCF26960FB6F894DEBF0FBECDBFDF9124
:100EF000CF910895209195023091960228173907D5
:100F0000B9F49091530280915402981789F0E091BE
:100F10005302F0E0EB5AFD4F80812091530230E004
:100F20002F5F3F4F2F7333272093530290E0089594
:100F30008FEF9FEF08951F93CF93DF93DC015C96B3
:100F40002D913C915D972115310539F481E090E0B8
:100F500013969C938E9312973DC05196ED91FC9100
:100F6000529750969C915097892F80951FB75E9607
:100F70004C915E9741FB772770F941FD6095F8949D
:100F80004081772311F0492B01C048234083E901B8
:100F90002197F1F748E0508160FF02C0592B01C052
:100FA00058235083E9012197F1F76695415099F74D
:100FB000772321F090818923808303C08081982B3F
:100FC00090831FBF5C968D919C915D970197F1F77F
:100FD00021E030E0C901DF91CF911F91089508957C
:100FE00020919502309196022817390771F490915B
:100FF000530280915402981741F0E0915302F0E0BF
:10100000EB5AFD4F808190E008958FEF9FEF089598
:1010100020919502309196022817390769F4809142
:1010200054022091530290E0805C9F4F821B9109F3
:1010300060E470E00C94051880E090E00895E09181
:101040009502F0919602E817F90769F4A389B4892B
:101050009C918589809589238C9310929602109299
:10106000950281E0089580E00895CF93DF93EC012D
:101070008A8D9B8D892BE9F0809195029091960243
:101080008C179D07B1F0009709F0D9DF8E8D8E7F08
:101090008E8F1092540210925302D0939602C093F6
:1010A0009502EB89FC8990818D89892B808381E071
:1010B00001C080E0DF91CF9108951F920F920FB68B
:1010C0000F9211242F933F934F935F936F937F93CE
:1010D0008F939F93AF93BF93EF93FF93E09195020C
:1010E000F0919602309709F451C0968DA685B78588
:1010F000858591FF04C09C91892329F447C09C9168
:10110000892309F043C0A389B4899C91858980957E
:1011100089238C93868997890197F1F7608D718D6A
:10112000A685B785558538E020E0CB010197F1F71A
:10113000822F90E095958795282F4C91452309F0B3
:101140002068315091F7868D81FD20958091540261
:1011500090E001968F73992730915302381749F028
:10116000A0915402B0E0AB5ABD4F2C93809354022F
:1011700003C0868D8160868F828D938D0197F1F7F4
:10118000A389B4899C918589892B8C93FF91EF91D8
:10119000BF91AF919F918F917F916F915F914F918F
:1011A0003F912F910F900FBE0F901F90189521E740
:1011B00031E0FC013183208342CF1F93CF93DF9333
:1011C000EC01162F6E8D6695617081E06827812F86
:1011D0000E94B21561E0812F0E947615612F70E0A8
:1011E000FB01E75CFE4FE491E88BFB01E35BFE4F04
:1011F000E491F0E0EE0FFF1FE559FE4F85919491C9
:101200009A8B898BDF91CF911F9108951F93CF9374
:10121000DF93EC01162F60E0812F0E9476158E8DF2
:1012200081FD04C061E0812F0E94B2151C87612FEF
:1012300070E0FB01E75CFE4FE491ED87FB01E35BAF
:10124000FE4FE491F0E0EE0FFF1FEF59FE4F859146
:1012500094919F878E87DF91CF911F9108951F935F
:10126000CF93DF93EC01162F1B821A8288EE93E056
:10127000A0E0B0E08C839D83AE83BF8381E791E0E3
:10128000998388831F8A1E8A198E188E1B8E1A8E48
:101290001D8E1C8E8E8D8E7F20FB81F98E8F642F8C
:1012A000CE018BDF612FCE01DF91CF911F91AECFA9
:1012B000CF93DF93EC019A01AB011B8E1A8E198E2E
:1012C000188E1F8A1E8A60E079E08DE390E00E940C
:1012D0003A18F9012430310518F0C901039702C00A
:1012E00081E090E09D8F8C8F6C85663108F069C03D
:1012F000C901969587958431910510F0439702C0F6
:1013000081E090E09F8B8E8B369718F0C90105978E
:1013100002C081E090E0998F888FC901880F991FE2
:10132000280F391F36952795369527952D3031058D
:1013300018F02C50310902C021E030E03B8F2A8F99
:1013400090916800683050F021E06E3008F420E0A1
:1013500081E001C0880F2A95EAF701C084E0892B5B
:10136000809368008C85883038F08E3040F086316C
:1013700048F020E030E008C02DE630E005C02BE664
:1013800030E002C02CE630E03C8B2B8B883030F410
:1013900091E001C0990F8A95EAF70EC0282F30E03E
:1013A0008E3018F42850310902C02E50310991E0D6
:1013B00001C0990F2A95EAF79D8B8C8D9D8D019721
:1013C000F1F7CE01DF91CF9150CE1092040381E06E
:1013D000809302031092010361E082E10E94B21542
:1013E00061E083E10E94B215E9EBF0E080818E7F3D
:1013F000808380818D7F808388E48093B80085E43A
:101400008093BC000895413208F043C090910403DA
:101410009111FCCF91E090930403209302032FEFEE
:10142000209397021092DC02240F2093DB0290930A
:10143000030390910303880F892B8093030380910A
:101440000103813061F410920103809103038093C2
:10145000BB008091BC0083FDF8CF85EC01C085EE18
:101460008093BC00809104038130E1F38091DC0221
:10147000841710F44091DC022DED32E0FB01D9011C
:101480008A2F821B841718F48D918193F9CF842FB2
:10149000089580E008950F93413208F04AC090917A
:1014A00004039111FCCF32E0309304030093020354
:1014B0003FEF309397021092DC024093DB02FB0176
:1014C0006DED72E0DB013A2F361B341718F43191C1
:1014D0003D93F9CF1092030330910303880F832BC0
:1014E0008093030380910103813061F41092010322
:1014F000809103038093BB008091BC0083FDF8CFF3
:1015000085EC01C085EE8093BC00222321F0809100
:1015100004038230D1F3809197028F3F79F080915C
:101520009702803241F080919702803331F094E04D
:1015300005C091E003C092E001C093E0892F0F91B4
:1015400008954091B902262F30E0240F311D213239
:101550003105DCF4209104032430C9F4FC0180E05F
:1015600090E0861758F43091B9022191DC01A5541E
:10157000BD4FA30FB11D2C930196F3CF8091B902FB
:10158000680F6093B90280E0089581E0089582E0D9
:10159000089585ED8093BC008091BC0084FDFCCF54
:1015A00010920403089585EC8093BC00109204030C
:1015B00008951F920F920FB60F9211242F933F930D
:1015C0004F935F936F937F938F939F93AF93BF934B
:1015D000EF93FF938091B900887F803609F49DC016
:1015E00070F5883209F45CC090F4803109F455C07C
:1015F00038F4882309F4F3C0883009F44EC0F2C0EF
:10160000883109F44DC0803209F45EC0EBC08034EB
:1016100009F469C050F4803309F456C0883309F0E6
:10162000E1C080939702BFDFDDC0803509F44FC071
:10163000883509F45DC0883409F0D4C0D2C0883937
:1016400009F4C3C0A8F4883709F467C038F48836B1
:1016500009F463C0803709F460C0C4C0883809F455
:10166000B4C0803909F45FC0803809F0BBC05BC0EA
:10167000803B09F482C038F4803A09F466C0883AA5
:1016800009F47BC0AFC0803C09F4A3C0883C09F4D6
:10169000A0C0883B09F486C0A5C08091030310C098
:1016A0009091DC028091DB02981770F5E091DC02EA
:1016B00081E08E0F8093DC02F0E0E352FD4F8081E9
:1016C0008093BB0085EC82C0809397028AC0E09132
:1016D000DC0281E08E0F8093DC028091BB00F0E0A1
:1016E000E352FD4F80839091DC028091DB026AC05F
:1016F000E091DC0281E08E0F8093DC028091BB00E0
:10170000F0E0E352FD4F808380910203811169C0B4
:1017100081E08093010384EA5DC083E08093040349
:1017200010929802CFCF80919802803208F04DC07D
:10173000E091980281E08E0F809398028091BB0027
:10174000F0E0E756FD4F8083BDCF2DDF80919802FA
:10175000803230F4E0919802F0E0E756FD4F1082BD
:101760006091980270E0E091FD02F091FE0289E93B
:1017700092E009951092980235C084E080930403AA
:101780001092BA021092B902E091FF02F0910003A8
:1017900009958091B902811105C081E08093B90259
:1017A0001092BB02E091BA0281E08E0F8093BA02E0
:1017B000F0E0E554FD4F80818093BB009091BA0228
:1017C0008091B902981708F47DCF85E88093BC001A
:1017D00009C085EC8093BC001092040303C01092F2
:1017E0009702D7DEFF91EF91BF91AF919F918F91BB
:1017F0007F916F915F914F913F912F910F900FBE0D
:101800000F901F9018958091350390E0209136033A
:10181000821B9109089590913603809135039817A2
:1018200050F4E92FF0E0E95CFC4F208130E09F5F4D
:101830009093360302C02FEF3FEFC9010895E09166
:10184000360380913503E81730F4F0E0E95CFC4F93
:10185000808190E008958FEF9FEF08950895CF92D3
:10186000DF92EF92FF920F931F93CF93DF937C0150
:10187000262F972F8A0180911103882391F0C62F7C
:10188000D72F6E01C40ED51ECC15DD0569F0699108
:10189000D701ED91FC910190F081E02DC7010995F0
:1018A000F3CF642F822F4DDEC801DF91CF911F91BE
:1018B0000F91FF90EF90DF90CF900895CF93DF933B
:1018C0001F92CDB7DEB76983209111032223D1F097
:1018D00020911203203240F021E030E0FC013383FC
:1018E000228380E090E014C080911303E82FF0E0A1
:1018F000EC5EFC4F998190838F5F809313038093FC
:10190000120304C061E0CE0101961BDE81E090E08D
:101910000F90DF91CF910895FC011382128288EE1F
:1019200093E0A0E0B0E084839583A683B78383E847
:1019300091E09183808308951092360310923503CD
:10194000109213031092120340CD81E08093110393
:101950006093340310921303109212030895F5CF8D
:101960000F93062F21E04091120364E173E0809110
:10197000340391DD1092130310921203109211039D
:101980000F9108954F925F926F927F92AF92BF92A4
:10199000CF92EF92FF920F931F93CF93DF935C014F
:1019A000F62ED42F28013901EE2011F1CEDFCE2DF5
:1019B000C43008F0C3E0C150C0F0D501ED91FC91F6
:1019C000B8E0CB9FC0011124A301920104C0569539
:1019D0004795379527958A95D2F7CA01B9010190A5
:1019E000F081E02DC5010995E6CF60E0C501B8DFC3
:1019F0004D2FD13208F040E22C2D67E373E08F2D9C
:101A000002DD1092360380933503DF91CF911F9151
:101A10000F91FF90EF90CF90BF90AF907F906F901D
:101A20005F904F900895CF92EF920F931F93C22E25
:101A3000E12C00E010E09801A5DF1F910F91EF90DD
:101A4000CF90089521E0EFCF61E08ACF85E093E069
:101A500063CF5058BB27AA270ED04DC13ED130F0DE
:101A600043D120F031F49F3F11F41EF433C10EF442
:101A7000E095E7FB29C1E92F4FD180F3BA17620740
:101A800073078407950718F071F49EF567C10EF48B
:101A9000E0950B2EBA2FA02D0B01B90190010C017E
:101AA000CA01A0011124FF27591B99F0593F50F496
:101AB000503E68F11A16F040A22F232F342F4427EE
:101AC000585FF3CF469537952795A795F0405395E6
:101AD000C9F77EF41F16BA0B620B730B840BBAF0B6
:101AE0009150A1F0FF0FBB1F661F771F881FC2F721
:101AF0000EC0BA0F621F731F841F48F48795779535
:101B00006795B795F7959E3F08F0B3CF9395880FEB
:101B100008F09927EE0F9795879508950CD0EBC0A4
:101B2000E3D040F0DAD030F021F45F3F19F0CCC0C0
:101B3000511115C1CFC0F0D098F39923C9F35523A3
:101B4000B1F3951B550BBB27AA27621773078407B0
:101B500038F09F5F5F4F220F331F441FAA1FA9F366
:101B600033D00E2E3AF0E0E830D091505040E69558
:101B7000001CCAF729D0FE2F27D0660F771F881FB9
:101B8000BB1F261737074807AB07B0E809F0BB0BA8
:101B9000802DBF01FF2793585F4F2AF09E3F5105CC
:101BA00068F092C0DCC05F3FECF3983EDCF38695B2
:101BB00077956795B795F7959F5FC9F7880F911D42
:101BC0009695879597F90895E1E0660F771F881F2E
:101BD000BB1F621773078407BA0720F0621B730BE1
:101BE000840BBA0BEE1F88F7E095089504D0689433
:101BF000B111B5C0089598D088F09F5790F0B92FD3
:101C00009927B751A0F0D1F0660F771F881F991F51
:101C10001AF0BA95C9F712C0B13081F09FD0B1E087
:101C200008959CC0672F782F8827B85F39F0B93F97
:101C3000CCF3869577956795B395D9F73EF4909553
:101C40008095709561957F4F8F4F9F4F0895E894D1
:101C500009C097FB3EF490958095709561957F4FF4
:101C60008F4F9F4F9923A9F0F92F96E9BB279395A2
:101C7000F695879577956795B795F111F8CFFAF4B2
:101C8000BB0F11F460FF1BC06F5F7F4F8F4F9F4FE3
:101C900016C0882311F096E911C0772321F09EE841
:101CA000872F762F05C0662371F096E8862F70E0A7
:101CB00060E02AF09A95660F771F881FDAF7880F81
:101CC0009695879597F9089597F99F6780E870E052
:101CD00060E008959FEF80EC089500240A941616A2
:101CE000170618060906089500240A94121613060A
:101CF000140605060895092E0394000C11F4882398
:101D000052F0BB0F40F4BF2B11F460FF04C06F5FB3
:101D10007F4F8F4F9F4F089557FD9058440F551F89
:101D200059F05F3F71F04795880F97FB991F61F05D
:101D30009F3F79F087950895121613061406551FD4
:101D4000F2CF4695F1DF08C0161617061806991F40
:101D5000F1CF86957105610508940895E894BB2735
:101D600066277727CB0197F908950BD0C4CFB5DF4D
:101D700028F0BADF18F0952309F0A6CFABCF1124D5
:101D8000EECFCADFA0F3959FD1F3950F50E0551F1A
:101D9000629FF001729FBB27F00DB11D639FAA27C0
:101DA000F00DB11DAA1F649F6627B00DA11D661F0F
:101DB000829F2227B00DA11D621F739FB00DA11D30
:101DC000621F839FA00D611D221F749F3327A00DEA
:101DD000611D231F849F600D211D822F762F6A2F86
:101DE00011249F5750408AF0E1F088234AF0EE0F0B
:101DF000FF1FBB1F661F771F881F91505040A9F718
:101E00009E3F510570F060CFAACF5F3FECF3983E44
:101E1000DCF3869577956795B795F795E7959F5F7E
:101E2000C1F7FE2B880F911D9695879597F9089518
:101E3000FA01EE0FFF1F30962105310599F161156A
:101E4000710561F48038BFE39B0749F168949038CD
:101E5000810561F08038BFEF9B0741F0992342F57F
:101E6000FF3FE1053105210511F1E8940894E7955C
:101E7000D901AA2329F4AB2FBE2FF85FD0F310C0ED
:101E8000FF5F70F4A695E0F7F73950F019F0FF3ACC
:101E900038F49F779F930CD00F9007FC90580895CB
:101EA0003EF018CF60E070E080E89FE308954FE7D0
:101EB0009F775F934F933F932F939ED02F913F91A6
:101EC0004F915F9152DF05C019F40EF0FDCE46CF61
:101ED00001CF2ADFC8F39638C0F707F80F92E894CD
:101EE0002BE33AEA48EB5FE74EDF0F920F920F9237
:101EF0004DB75EB70F92C0D0E8E6F0E016D04F9134
:101F00005F91EF91FF91E595EE1FFF1F49F0FE579E
:101F1000E0684427EE0F441FFA95E1F74195550B11
:101F200032D00F9007FE26C00895DF93CF931F9302
:101F30000F93FF92EF92DF927B018C01689405C0B2
:101F4000DA2EEF011EDFFE01E894A591259135916F
:101F500045915591AEF3EF018EDDFE019701A80189
:101F6000DA9479F7DF90EF90FF900F911F91CF9166
:101F7000DF9108959B01AC0160E070E080E89FE391
:101F8000CDCDA2CEACC0D0DEE8F39923D9F3940F27
:101F9000511DBBF39150504094F059F0882332F01A
:101FA000660F771F881F91505040C1F79E3F510523
:101FB00044F7880F911D9695879597F908955F3F8F
:101FC000ACF0983E9CF0BB27869577956795B795C2
:101FD00008F4B1609395C1F7BB0F58F711F460FF97
:101FE000E8CF6F5F7F4F8F4F9F4FE3CFB8CE0EF09C
:101FF00076C070CE689468CE97DEC8F39923D1F38B
:10200000C6F3DF93CF931F930F93FF92C92FDD2762
:1020100088232AF02197660F771F881FDAF720E0C0
:1020200030E040E85FEB9FE3883920F0803E30F0FD
:1020300021968F770FDDE0E9F0E003C00BDDEDEBDB
:10204000F0E073DF8B01BE01EC01FB2E6F577109CD
:102050007595771F880B990BFCDD28E132E741E38A
:102060005FE38FDEAF2D9801AE01FF900F911F91BE
:10207000CF91DF9100DD3FCEFA01DC01AA0FBB1F3B
:102080009B01AC01BF5728F42227332744275078FF
:102090001FC0B75188F4AB2F00244695379527957C
:1020A000011CA395D2F3002069F0220F331F441FB7
:1020B000B395DAF30DD0CDCC61307105A0E88A0775
:1020C000B94630F49B01AC016627772788279078C2
:1020D000309621F0208331834283538308959F3FBC
:1020E00031F0915020F4879577956795B795880FD3
:1020F000911D9695879597F90895FC01918D228DF4
:10210000892F90E0805C9F4F821B91098F739927E4
:102110000895FC01918D828D981731F0828DE80F22
:10212000F11D858D90E008958FEF9FEF0895FC01DC
:10213000918D828D981761F0828DDF01A80FB11DFE
:102140005D968C91928D9F5F9F73928F90E0089522
:102150008FEF9FEF0895FC01538D448D252F30E0C4
:10216000842F90E0821B930B541710F0CF960895A4
:102170000197089589E092E1892B41F086E097E08C
:10218000892B21F046D181110C9406070895FC019A
:10219000848DDF01A80FB11DA35ABF4F2C91848DF0
:1021A00090E001968F739927848FA689B7892C9325
:1021B000A089B1898C9180648C93938D848D9813C0
:1021C00006C00288F389E02D80818F7D8083089589
:1021D000CF93DF93EC01888D8823C1F0EA89FB89D6
:1021E000808185FD05C0A889B9898C9186FD0EC0C6
:1021F0000FB607FCF5CF808185FFF2CFA889B9899A
:102200008C9185FFEDCFCE01C2DFE8CFDF91CF917A
:102210000895EF92FF920F931F93CF93DF93EC01FA
:1022200081E0888F9B8D8C8D981305C0E889F98992
:10223000808185FD23C0F62E0B8D10E00F5F1F4FB0
:102240000F731127E02E8C8DE8120BC00FB607FC20
:10225000FACFE889F989808185FFF5CFCE0197DF34
:10226000F2CF8B8DFE01E80FF11DE35AFF4FF08294
:102270000B8FEA89FB898081806207C0EE89FF8924
:102280006083E889F98980818064808381E090E0BF
:10229000DF91CF911F910F91FF90EF900895CF9212
:1022A000DF92EF92FF921F93CF93DF93EC016A01CD
:1022B0007B01122FE889F98982E080834115514E14
:1022C00061057105A9F060E079E08DE390E0A70178
:1022D0009601AED6DA01C9010197A109B109B695F7
:1022E000A79597958795AC01411580E15807A0F017
:1022F000E889F989108260E874E88EE190E0A7012E
:10230000960196D6BA01A901415051096109710996
:102310007695679557954795EC85FD855083EE85B5
:10232000FF854083188EEC89FD891083EA89FB893B
:10233000808180618083EA89FB89808188608083D5
:10234000EA89FB89808180688083EA89FB898081B2
:102350008F7D8083DF91CF911F91FF90EF90DF9071
:10236000CF9008951F920F920FB60F9211242F93C2
:102370008F939F93EF93FF93E0916703F09168032E
:102380008081E0916D03F0916E0382FD12C0908117
:10239000809170038F5F8F7320917103821751F0CA
:1023A000E0917003F0E0E95AFC4F958F8093700341
:1023B00001C08081FF91EF919F918F912F910F909C
:1023C0000FBE0F901F9018951F920F920FB60F928D
:1023D00011242F933F934F935F936F937F938F932A
:1023E0009F93AF93BF93EF93FF9387E593E0CFDE87
:1023F000FF91EF91BF91AF919F918F917F916F91DD
:102400005F914F913F912F910F900FBE0F901F90B2
:10241000189587E593E071DE21E0892B09F420E02F
:10242000822F0895E7E5F3E01382128288EE93E0AD
:10243000A0E0B0E084839583A683B78385E991E02B
:102440009183808385EC90E09587848784EC90E08D
:102450009787868780EC90E0918B808B81EC90E071
:10246000938B828B82EC90E0958B848B86EC90E052
:10247000978B868B118E128E138E148E089508956D
:10248000D1D2FDDF0E94D805CAEBD0E10E9421061F
:102490002097E1F36FDEFACFCF92DF92EF92FF92B7
:1024A0000F931F93CF93DF936C017A018B01C0E0F0
:1024B000D0E0CE15DF0589F0D8016D918D01D601F0
:1024C000ED91FC910190F081E02DC6010995892BD9
:1024D00011F47E0102C02196ECCFC701DF91CF91AC
:1024E0001F910F91FF90EF90DF90CF9008956115AD
:1024F000710579F0FB0101900020E9F73197AF01F8
:10250000461B570BDC01ED91FC910280F381E02D1D
:10251000099480E090E00895DC01ED91FC91DB01ED
:1025200014964D915C9115976D917C910280F38189
:10253000E02D0994DCCFDC01ED91FC910190F0815C
:10254000E02D099463EA71E0D2CF0F931F93CF93EC
:10255000DF93EC01E1DF8C01CE01F4DF800F911FEE
:10256000DF91CF911F910F9108950F931F93CF93F8
:10257000DF93EC01BCDF8C01CE01E4DF800F911F03
:10258000DF91CF911F910F9108958F929F92AF92FB
:10259000BF92CF92DF92EF92FF920F931F93CF9350
:1025A000DF93CDB7DEB7A1970FB6F894DEBF0FBEAD
:1025B000CDBF7C01D42EC52EDB0119A2223008F438
:1025C0002AE08E010F5D1F4F822E912CA12CB12C81
:1025D0006D2D7C2DCD01A50194012AD5D22EC32EBF
:1025E000DA01015011096A3071058105910510F475
:1025F000605D01C0695CF8016083232B242B252BCF
:1026000039F7B801C70173DFA1960FB6F894DEBFA2
:102610000FBECDBFDF91CF911F910F91FF90EF9033
:10262000DF90CF90BF90AF909F908F900895CF9202
:10263000DF92EF92FF920F931F93CF93DF93EC0102
:102640006A017B012115310579F4E881F981019056
:10265000F081E02D642FDF91CF911F910F91FF90BA
:10266000EF90DF90CF9009942A303105D9F477FFAD
:1026700018C06DE260DF8C0144275527BA014C1960
:102680005D096E097F092AE0CE017FDF800F911F6F
:10269000DF91CF911F910F91FF90EF90DF90CF903E
:1026A00008952AE0B701A601CE01DF91CF911F91D5
:1026B0000F91FF90EF90DF90CF9067CF0F931F9314
:1026C000CF93DF93EC019A01AB01770F660B770B89
:1026D000AEDF8C01CE0136DF800F911FDF91CF91ED
:1026E0001F910F9108952115310541F4DC01ED9101
:1026F000FC910190F081E02D642F099446CF0F9357
:102700001F93CF93DF93EC01EEDF8C01CE011ADF34
:10271000800F911FDF91CF911F910F9108954F92DC
:102720005F926F927F928F929F92AF92BF92CF9261
:10273000DF92EF92FF92CF93DF93EC016A017B016E
:10274000B22E9A01AB01C701B6015BD4882319F000
:1027500066EA71E024C026013701E89477F82FEF8C
:102760003FEF4FE75FE7C301B2014BD481110CC0CB
:102770002FEF3FEF4FE75FE7C301B20116D4181602
:102780001CF46AEA71E00BC02FEF3FEF4FE75FE404
:10279000C701B60132D4181694F46EEA71E0CE0186
:1027A000DF91CF91FF90EF90DF90CF90BF90AF90EF
:1027B0009F908F907F906F905F904F9098CE2FEF6B
:1027C0003FEF4FE75FECC701B601EFD387FDE5CFE1
:1027D00020E030E0A901C701B601E7D387FF09C0B7
:1027E0006DE2CE01A8DE4C01F7FAF094F7F8F09410
:1027F00002C0812C912CA12C60E070E080E09FE36E
:10280000AB1439F020E030E040E251E487D9A394E2
:10281000F7CF9B01AC01C701B6011CD92B013C01CC
:10282000EAD96B017C0113DA9B01AC01C301B2014F
:1028300010D92B013C012AE0B701A601CE01A5DE8B
:102840007C01E80CF91CBB2029F06EE2CE0173DE9E
:10285000E80EF91EDB2CDD2001F120E030E040E243
:1028600051E4C301B20181DA2B013C01C4D94B010F
:10287000A12CB12C2AE0B501A401CE0186DEE80E20
:10288000F91EC501B401E3D99B01AC01C301B2013A
:10289000E0D82B013C01DA94DECFC701DF91CF9164
:1028A000FF90EF90DF90CF90BF90AF909F908F9070
:1028B0007F906F905F904F90089531CF1F920F924D
:1028C0000FB60F9211242F933F938F939F93AF9343
:1028D000BF938091F5039091F603A091F703B09117
:1028E000F8033091F40323E0230F2D3720F40196F1
:1028F000A11DB11D05C026E8230F0296A11DB11D23
:102900002093F4038093F5039093F603A093F703C9
:10291000B093F8038091F9039091FA03A091FB031F
:10292000B091FC030196A11DB11D8093F903909312
:10293000FA03A093FB03B093FC03BF91AF919F9167
:102940008F913F912F910F900FBE0F901F90189570
:102950002FB7F8946091F5037091F6038091F70317
:102960009091F8032FBF08953FB7F8948091F90331
:102970009091FA03A091FB03B091FC0326B5A89BAC
:1029800005C02F3F19F00196A11DB11D3FBFBA2F01
:10299000A92F982F8827820F911DA11DB11DBC0161
:1029A000CD0142E0660F771F881F991F4A95D1F726
:1029B00008958F929F92AF92BF92CF92DF92EF9243
:1029C000FF926B017C01D0DF4B015C01C114D1048B
:1029D000E104F104F1F0E8D2C7DFDC01CB01881992
:1029E0009909AA09BB09883E9340A105B10570F376
:1029F00021E0C21AD108E108F10888EE880E83E0D0
:102A0000981EA11CB11CC114D104E104F10421F7EA
:102A1000DDCFFF90EF90DF90CF90BF90AF909F9071
:102A20008F900895789484B5826084BD84B5816068
:102A300084BD85B5826085BD85B5816085BDEEE6C6
:102A4000F0E0808181608083E1E8F0E010828081A5
:102A500082608083808181608083E0E8F0E0808113
:102A600081608083E1EBF0E0808184608083E0EB33
:102A7000F0E0808181608083EAE7F0E0808184601B
:102A80008083808182608083808181608083808177
:102A9000806880831092C1000895833081F028F40B
:102AA000813099F08230A1F008958730A9F0883004
:102AB000B9F08430D1F4809180008F7D03C0809183
:102AC00080008F7780938000089584B58F7702C04F
:102AD00084B58F7D84BD08958091B0008F7703C049
:102AE0008091B0008F7D8093B0000895CF93DF93E5
:102AF00090E0FC01E75CFE4F2491FC01E35BFE4F9C
:102B00008491882361F190E0880F991FFC01EB58B4
:102B1000FE4FC591D491FC01E559FE4FA591B491AA
:102B2000611109C09FB7F89488812095822388831A
:102B3000EC912E230BC0623061F49FB7F89438817A
:102B4000822F809583238883EC912E2B2C939FBF1B
:102B500006C08FB7F894E8812E2B28838FBFDF91B2
:102B6000CF9108951F93CF93DF93282F30E0F90181
:102B7000EB5DFE4F8491F901E75CFE4FD491F901C2
:102B8000E35BFE4FC491CC23C1F0162F811185DF8A
:102B9000EC2FF0E0EE0FFF1FE559FE4FA591B49129
:102BA0008FB7F894111105C09C91ED2FE095E923A2
:102BB00002C0EC91ED2BEC938FBFDF91CF911F9171
:102BC00008950895FC01808191812EC3CF93DF93F6
:102BD000EC0188819981009709F026D31982188227
:102BE0001D821C821B821A82DF91CF9108950F9360
:102BF0001F93CF93DF93EC018B016F5F7F4F888131
:102C00009981AAD3009731F0998388831B830A8323
:102C100081E001C080E0DF91CF911F910F91089575
:102C2000CF93DF93EC0188819981892B29F08A81E8
:102C30009B818617970758F4CE01D9DF882341F08E
:102C40008C819D81892B19F4E881F981108281E0C2
:102C5000DF91CF910895EF92FF920F931F93CF933F
:102C6000DF93EC017B018A01BA01DADF811103C035
:102C7000CE01ACDF06C01D830C83B701888199812A
:102C80004AD4CE01DF91CF911F910F91FF90EF9029
:102C90000895FC011182108213821282158214821F
:102CA0006115710549F0FB0101900020E9F73197AA
:102CB000AF01461B570BCFCF08950F931F93CF93B0
:102CC000DF938C01EB01FC01808191810097C1F0C1
:102CD000688179816115710591F021EE35E1232B31
:102CE00071F0428153812C813D814217530738F0A6
:102CF00012D48C819D81F8019583848312C094D273
:102D000088819981F801918380838A819B81938353
:102D100082838C819D8195838483198218821B8292
:102D20001A821D821C82DF91CF911F910F9108950D
:102D3000CF93DF93EC01FB018617970751F0608179
:102D400071816115710521F04481558184DF01C0D5
:102D50003DDFCE01DF91CF910895FC0111821082F9
:102D60001382128215821482E3CFCF93DF93EC019A
:102D70008617970709F0A1DFCE01DF91CF91089563
:102D8000CF93DF93EC016115710551F0FB010190C8
:102D90000020E9F73197AF01461B570B5CDF01C0FC
:102DA00015DFCE01DF91CF910895EF92FF920F933F
:102DB0001F93CF93DF93FC01248135816115710549
:102DC00011F480E017C04115510599F07B01EC0129
:102DD0008A01020F131FB80123DF882391F3288192
:102DE00039818C819D81B701820F931F94D31D83FC
:102DF0000C8381E0DF91CF911F910F91FF90EF90B5
:102E00000895FB014481558160817181CECF6115A8
:102E1000710549F0FB0101900020E9F73197AF01FE
:102E2000461B570BC2CF80E00895CF93DF9300D0AD
:102E3000CDB7DEB769831A8241E050E0BE016F5F13
:102E40007F4FB3DF0F900F90DF91CF910895EF92F6
:102E5000FF920F931F93CF93DF93CDB7DEB72D97DC
:102E60000FB6F894DEBF0FBECDBF7C01CB01BA0117
:102E70002AE08E010F5F1F4FA8016ED3F801019069
:102E80000020E9F73197AF01401B510BB801C70192
:102E90008CDF2D960FB6F894DEBF0FBECDBFDF914D
:102EA000CF911F910F91FF90EF900895CF93DF93F3
:102EB000FC01248135814217530778F4FB01DC01C2
:102EC000CD91DC9160817181CE01840F951F2AD351
:102ED000009719F08C1B9D0B02C08FEF9FEFDF91C5
:102EE000CF91089540E050E0E1CFBF92CF92DF92C2
:102EF000EF92FF920F931F93CF93DF937C016B01AF
:102F00008A01E9012417350720F4812F8901C42F94
:102F1000D82F65EA71E0C701BCDED60114968D9109
:102F20009C91159708171907C8F48C179D0708F48A
:102F3000EC01D601ED91FC911197EC0FFD1FB080D3
:102F400010824D915C91BA01600F711FC70118DFAB
:102F5000D601ED91FC91EC0FFD1FB082C701DF910E
:102F6000CF911F910F91FF90EF90DF90CF90BF9086
:102F70000895CF93DF93FC01C081D181209739F070
:102F80008881882321F090E0B5D28993F9CFDF9131
:102F9000CF910895FC0180819181009709F09FC233
:102FA00060E070E0CB010895089503D008F481E05B
:102FB0000895990F0008550FAA0BE0E8FEEF1616CA
:102FC0001706E807F907C0F012161306E407F5071D
:102FD00098F0621B730B840B950B39F40A2661F091
:102FE000232B242B252B21F408950A2609F4A14034
:102FF000A6958FEF811D811D0895DBDF08F48FEF0B
:103000000895D7DF880B990B089597FB072E16F4C8
:10301000009406D077FD08D058D007FC05D03EF4C8
:10302000909581959F4F0895709561957F4F089574
:10303000A1E21A2EAA1BBB1BFD010DC0AA1FBB1FBC
:10304000EE1FFF1FA217B307E407F50720F0A21B2E
:10305000B30BE40BF50B661F771F881F991F1A949B
:1030600069F760957095809590959B01AC01BD01C5
:10307000CF010895052E97FB16F400940FD057FD4D
:1030800005D0D6DF07FC02D046F408C05095409525
:10309000309521953F4F4F4F5F4F08959095809504
:1030A000709561957F4F8F4F9F4F0895A29FB001FC
:1030B000B39FC001A39F700D811D1124911DB29F6C
:1030C000700D811D1124911D0895AA1BBB1B51E198
:1030D00007C0AA1FBB1FA617B70710F0A61BB70B88
:1030E000881F991F5A95A9F780959095BC01CD012D
:1030F0000895EE0FFF1F0590F491E02D0994CF93F2
:10310000DF938230910510F482E090E0E091FF03BC
:10311000F091000420E030E0C0E0D0E0309711F101
:103120004081518148175907C0F04817590761F489
:1031300082819381209719F09B838A832BC090937F
:1031400000048093FF0326C02115310519F04217B2
:10315000530718F49A01BE01DF01EF010280F381E9
:10316000E02DDCCF2115310509F1281B390B243066
:10317000310590F412968D919C911397611571050C
:1031800021F0FB019383828304C090930004809319
:10319000FF03FD01329644C0FD01E20FF31F81934E
:1031A0009193225031092D933C933AC02091FD0315
:1031B0003091FE03232B41F4209102013091030151
:1031C0003093FE032093FD03209100013091010113
:1031D0002115310541F42DB73EB7409104015091BE
:1031E0000501241B350BE091FD03F091FE03E2176E
:1031F000F307A0F42E1B3F0B2817390778F0AC011A
:103200004E5F5F4F2417350748F04E0F5F1F5093F6
:10321000FE034093FD038193919302C0E0E0F0E050
:10322000CF01DF91CF9108950F931F93CF93DF9339
:10323000009709F48CC0FC0132971382128200912E
:10324000FF03109100040115110581F420813181E3
:10325000820F931F2091FD033091FE032817390739
:1032600079F5F093FE03E093FD0371C0D80140E0CF
:1032700050E0AE17BF0750F412962D913C91139772
:10328000AD012115310509F1D901F3CF9D01DA0115
:103290003383228360817181860F971F8217930782
:1032A00069F4EC0128813981260F371F2E5F3F4FCB
:1032B000318320838A819B8193838283452B29F4E8
:1032C000F0930004E093FF0342C01396FC93EE9347
:1032D0001297ED01499159919E01240F351FE21774
:1032E000F30771F480819181840F951F02961196E6
:1032F0009C938E938281938113969C938E931297C5
:10330000E0E0F0E0D80112968D919C911397009720
:1033100019F0F8018C01F6CF8D919C9198012E5FE8
:103320003F4F820F931F2091FD033091FE0328171A
:10333000390769F4309729F4109200041092FF03C2
:1033400002C0138212821093FE030093FD03DF91EB
:10335000CF911F910F910895A0E0B0E0E1EBF9E16A
:10336000A9C2EC01009719F4CB01C9DEB4C0FC017D
:10337000E60FF71F9C0122503109E217F30708F40A
:10338000A8C0D9010D911C91119706171707A8F035
:103390000530110508F49BC0C801049786179707EC
:1033A00008F495C002501109061B170B01931193E5
:1033B0006D937C93CF0138DF8AC05B01A01AB10AFC
:1033C0004C01800E911EA091FF03B091000440E0DB
:1033D00050E0E12CF12C109709F44AC0A815B9056A
:1033E000D1F56D907C901197630182E0C80ED11CDD
:1033F000CA14DB0480F1A3014A195B096A0182E067
:10340000C80ED11C1296BC9012971396AC91B5E0E1
:10341000CB16D10440F0B282A38351834083D901FB
:103420006D937C930AC00E5F1F4FC301800F911FE5
:10343000F90191838083EB2DFA2FE114F10431F02F
:10344000D7011396FC93EE93129741C0F0930004BA
:10345000E093FF033CC08D919C9111974817590749
:1034600008F4AC017D0112960D90BC91A02DB3CF54
:103470008091FD039091FE0388159905E1F44617AC
:103480005707C8F48091000190910101009741F421
:103490008DB79EB74091040150910501841B950B97
:1034A000E817F907B0F4F093FE03E093FD03F90188
:1034B000718360830CC0CB0122DE7C01009749F050
:1034C000A801BE011FD0CE01AFDEC70104C0CE01EE
:1034D00002C080E090E0CDB7DEB7EEE007C266271D
:1034E00077275BC09111ADC1803219F089508550AA
:1034F000D0F708959111089581568A5108F48052A9
:1035000085580895FB01DC0102C001900D924150E5
:103510005040D8F70895FB01DC0101900D92002086
:10352000E1F70895FB0151915523A9F0BF01DC019A
:103530004D9145174111E1F759F4CD01019000205B
:1035400049F04D9140154111C9F3FB014111EFCFF5
:1035500081E090E001970895BB27FA01A62F62173A
:10356000710581059105330B30FB66F0AA27660FC4
:10357000771F881F991FAA1FA21710F0A21B63951F
:103580003850A9F7A05DAA3308F0A95DA19336F7DA
:10359000B111B1931082CA016FC1A0E0B0E0E2EDB9
:1035A000FAE188C1EC017B016115710519F0DB01BD
:1035B0008D939C938E010F5F1F4F7880872D90E035
:1035C00091DF892B11F0E801F5CFBDE27B1205C038
:1035D0000F5F1F4F7980C1E008C0EBE27E1204C08C
:1035E0008E010E5F1F4F7980C0E06801F1E0CF1AB5
:1035F000D10843E050E062EF70E0C60125D1892B8D
:10360000E9F4680122E0C20ED11C45E050E06DEE05
:1036100070E0C60119D1892B21F4680187E0C80E3A
:10362000D11CE114F10419F0D701CD92DC92C11143
:10363000FBC060E070E080E89FE7FFC043E050E03F
:103640006AEE70E0C60100D1892B51F4E114F10457
:1036500009F4EFC00E5F1F4FF70111830083E9C02B
:10366000680160E070E0CB0100E010E0F601D0ED11
:10367000D70DDA3050F52C2F2260622E2C2F2870B7
:10368000C2FF05C0211127C00F5F1F4F24C0222396
:1036900011F001501109A5E0B0E09B01AC01FCD094
:1036A0004B015C01880C991CAA1CBB1CC501B40110
:1036B0006D0F711D811D911D6839A9E97A078A076F
:1036C000A9E19A0740F0C66005C0DE3F51F4C3FD92
:1036D00044C0C8606C2EBFEFCB1ADB0A7080C62DC9
:1036E000C5CF2D2F2F7D2531C1F540814D3211F4ED
:1036F000C06106C04B3221F0319621E030E006C0B7
:103700003296D60111964C9122E030E0A0EDA40F44
:10371000AA3018F0E21BF30B20C040E050E0403824
:10372000BCE05B075CF49A01220F331F220F331FAA
:10373000420F531F440F551F4A0F511D3196DF0191
:1037400011972C91A0EDA20FAA3048F3C4FF03C03B
:10375000519541955109040F151FC1FF07C0E11490
:10376000F10421F03197D701ED93FC930E94270ECD
:10377000C370C33019F06B017C0106C06B017C0182
:10378000F7FAF094F7F8F09420E030E0A901C701CF
:10379000B6010BDC882309F444C017FF06C011955D
:1037A00001951109C9E0D1E002C0C1E2D1E05E019A
:1037B000B8E1AB1AB1084601BE2DAF2D90E2E92E5B
:1037C000F12C0E151F0584F0FE01259135914591D0
:1037D0005491B4018B2F9A2F0E94B50E4B01B82F34
:1037E000A92F0E191F09EDCF2497F594E794CA1558
:1037F000DB0539F76401EB2EFA2E8E2D880F8F2D05
:10380000881F8F3F41F020E030E0A901C701B601D9
:10381000CCDB811106C082E290E090930204809399
:103820000104C701B60109C060E070E080E89FEFC5
:1038300004C060E070E080EC9FE7CDB7DEB7EEE05B
:1038400055C0992788270895FB01DC01415050405D
:1038500088F08D9181341CF08B350CF4805E65917D
:1038600061341CF06B350CF4605E861B611171F3E2
:10387000990B0895881BFCCFDC01FC01672F719127
:103880007723E1F7329704C07C916D937083629146
:10389000AE17BF07C8F3089509DCA59F900DB49F2C
:1038A000900DA49F800D911D112408952F923F9299
:1038B0004F925F926F927F928F929F92AF92BF9240
:1038C000CF92DF92EF92FF920F931F93CF93DF93EC
:1038D000CDB7DEB7CA1BDB0B0FB6F894DEBF0FBE49
:1038E000CDBF09942A88398848885F846E847D8496
:1038F0008C849B84AA84B984C884DF80EE80FD8098
:103900000C811B81AA81B981CE0FD11D0FB6F8940D
:10391000DEBF0FBECDBFED01089510E0C4ECD0E0D6
:1039200003C0FE01E6DB2196C63CD107D1F7F8942F
:02393000FFCFC7
:103932000000030420004D4F544F52533A004C31C3
:1039420020004C32200052312000523220005348D5
:103952004F543A004F4E004F464600504F533A00E4
:103962005859503A00783A00793A004D73673A0054
:1039720053797374656D00413A006B703A006B695C
:103982003A006B643A00494E00494E32004F55549A
:1039920000583A00593A00426567696E000000001B
:1039A200009B074C129904EF0708087A07F00700FA
:1039B2000000005E0C2F0C99042E0C030C0B0C1F44
:1039C2000C0000000009114C12AB10E8107D10979A
:1039D2001089100D0A006E616E00696E66006F76C6
:0239E20066007D
:00000001FF
