S0150000736B657463685F6A756C3330612E737265631F
S113000042C1000068C1000066C100000C943C09B4
S11300100C943C090C943C095EC100005CC10000D6
S11300205AC1000058C1000056C1000054C100006C
S113003052C1000050C100004EC100004CC100007C
S11300400C94211548C100000C9491120C94C31215
S113005042C1000040C100003EC100003CC100009C
S11300600C94B80B38C1000007634236B79BD8A77D
S11300701A39685618AEBAAB558C1D3CB7CC5763C9
S1130080BD6DEDFD753EF6177231BF000000803F77
S113009008000000BE922449123EABAAAA2ABECD93
S11300A0CCCC4C3E00000080BEABAAAAAA3E000005
S11300B00000BF000000803F0000000000084178FD
S11300C0D3BB4387D1133D190E3CC3BD4282AD2B34
S11300D03E68EC8276BED98FE1A93E4C80EFFFBE2C
S11300E001C4FF7F3F00000000004E414E494E49CD
S11300F05459494E46CDCCCC3D0AD7233C17B7D1F1
S11301003877CC2B329595E6241FB14F0A00002096
S1130110410000C84200401C4620BCBE4CCA1B0E15
S11301205AAEC59D7400407A10F35A00A0724E185E
S1130130090010A5D4E80000E87648170000E40B95
S113014054020000CA9A3B000000E1F5050000805B
S1130150969800000040420F000000A086010000B5
S113016000102700000000E8030000000064000005
S11301700000000A00000000000100000000002C44
S113018076D888DC674F0823DFC1DFAE59E1B1B709
S113019096E5E3E453C63AE651997696E8E6C284D6
S11301A026EB898C9B62ED407C6FFCEFBC9C9F40EE
S11301B0F2BAA56FA5F490055A2AF75C936B6CF913
S11301C0676DC11BFCE0E40D47FEF520E6B500D0E9
S11301D0ED902E0300943577050080841E080000FE
S11301E0204E0A000000C80C333333330F986E12CC
S11301F0831141EF8D2114893BE65516CFFEE6DBD2
S113020018D1844B381BF77C1D901DA4BBE424201B
S11302103284725E228100C9F124ECA1E53D2700FD
S113022000000800020100000304070000000000B1
S1130230000000010204081020408001020408109C
S11302402001020408102004040404040404040229
S1130250020202020203030303030300000000235B
S1130260002600290000000000250028002B0000C3
S1130270000000240027002A000062029E07050EE9
S1130280F1126802D10711241FBECFEFD8E0DEBF00
S1130290CDBF12E0A0E0B1E0ECE5FFE302C00590C1
S11302A00D92A234B107D9F724E0A2E4B2E001C070
S11302B01D92A139B207E1F711E0C1E4D1E004C015
S11302C02197FE010E943B19CD33D107C9F70E9443
S11302D01F130C94A21F94CE40E855E260E070E036
S11302E082E492E00C94370A40E855E260E070E062
S11302F082E492E00E94370A67E071E082E492E0CF
S11303000C9494130F931F93CF93DF9300D000D0DA
S113031000D0CDB7DEB78B016FE071E0CE0101965E
S11303200E940017B801CE0101960E940718BC0173
S1130330C8010E944F17CE0101960E949916B80178
S113034082E492E00E94841326960FB6F894DEBFEE
S11303500FBECDBFDF91CF911F910F91089564E13E
S113036071E082E492E00C9494130F931F93CF9363
S1130370DF9300D000D000D0CDB7DEB7162F042F06
S113038060E271E0CE0101960E940017112319F07A
S113039066E271E002C062E371E0CE0101960E9460
S11303A0B817002319F061E471E002C06EE471E053
S11303B0CE0101960E94B817112319F06EE571E081
S11303C002C06CE671E0CE0101960E94B817BE012E
S11303D06F5F7F4F82E492E00E948413CE01019606
S11303E00E94991626960FB6F894DEBF0FBECDBFB5
S11303F0DF91CF911F910F9108954F925F926F9269
S11304007F928F929F92AF92BF92CF92DF92EF92A0
S1130410FF920F931F93CF93DF9300D000D000D0AF
S1130420CDB7DEB72A013B01480159016DE771E000
S1130430CE0101960E94001762E871E0CE01019698
S11304400E94B817B301A201CE0101960E94D817E9
S113045065E871E0CE0101960E94B817B501A401C8
S1130460CE0101960E94D8176FE771E0CE01019684
S11304700E94B817B701A601CE0101960E94D817B1
S1130480BE016F5F7F4F82E492E00E948413CE012D
S113049001960E94991626960FB6F894DEBF0FBEF9
S11304A0CDBFDF91CF911F910F91FF90EF90DF901F
S11304B0CF90BF90AF909F908F907F906F905F9000
S11304C04F90089520E04BE06AE082E492E0A6C7F2
S11304D082E492E04BC7CF93DF93FC0188E0DF0115
S11304E0C82F1D92CA95E9F7DF011896ED011992FC
S11304F08A95E9F7148E158E168E178E10A280E059
S113050090E0A0E8BFE3808B918BA28BB38B848BAC
S1130510958BA68BB78B808F918FA28FB38FDF9132
S1130520CF910895FC01848D0895FC01858D089573
S1130530FC01868D0895FC01878D0895FC0180A13E
S113054008950F931F93CF93C62F8A0183E993E0F5
S11305500E947B0D6C2F70E083E993E00E948E0D66
S113056060E971E083E993E00E9479134AE050E086
S1130570B80183E993E00E943D1483E993E0CF91AD
S11305801F910F910C94030ECF92DF92EF92FF9282
S11305900F931F93CF93DF93EC016A017901AB01B1
S11305A061E0CFDFA60162E0CE01CBDFA70163E00B
S11305B0CE01C7DFA80164E0CE01DF91CF911F9186
S11305C00F91FF90EF90DF90CF90BBCF4F925F924F
S11305D06F927F92AF92BF92CF92DF92EF92FF928F
S11305E00F931F93CF93DF9300D000D01F92CDB70A
S11305F0DEB729013A01E982FA820B831C8383E97D
S113060093E06D830E947B0D6D8170E083E993E03C
S11306100E948E0D63E971E083E993E00E947913EF
S113062022E030E0B301A20183E993E00E942015A7
S113063067E971E083E993E00E94791322E030E0F6
S113064049815A816B817C8183E993E00E94201562
S11306506BE971E083E993E00E94791322E030E0D2
S1130660B601A50183E993E00E94201583E993E094
S11306700E94811383E993E00F900F900F900F90E5
S11306800F90DF91CF911F910F91FF90EF90DF902A
S1130690CF90BF90AF907F906F905F904F900C94ED
S11306A0030EAF92BF92CF92DF92EF92FF920F931D
S11306B01F93CF93DF93EC01A88CB98CCA8CDB8C8D
S11306C0EC88FD880E891F89288939894A895B89C4
S11306D061E07CDFA88CB98CCA8CDB8CEC88FD884B
S11306E00E891F89288939894A895B8962E0CE018C
S11306F06DDFA88CB98CCA8CDB8CEC88FD880E89E4
S11307001F89288939894A895B8963E0CE015EDFC4
S1130710A88CB98CCA8CDB8CEC88FD880E891F8967
S1130720288939894A895B8964E0CE014FDFDF91EA
S1130730CF911F910F91FF90EF90DF90CF90BF90DA
S1130740AF900895CF93DF931F92CDB7DEB783E9BF
S113075093E069830E947B0D698170E041E050E081
S113076083E993E00E94010E83E993E00E94E20C86
S1130770892B39F083E993E00F90DF91CF910C94AA
S1130780EA0C0F90DF91CF910895AF92BF92CF9270
S1130790DF92EF92FF920F931F93CF93DF93EC01BD
S11307A086E0A82EB12CC88CD98CEA8CFB8C0C89E1
S11307B01D892E893F89488959896A897B89CE0197
S11307C070DF61E0CE01BEDF6C0162E0CE01BADF12
S11307D07C0163E0CE01B6DF8C0164E0CE01B2DFC0
S11307E09C0181E0C816D10469F482E0E816F104A2
S11307F049F40330110531F42430310519F481E052
S11308008C8F04C01C8ECA94CD2811F481E08D8F86
S113081082E0E816F10411F481E08E8F03301105B3
S113082011F481E08F8F2430310511F481E088A325
S113083081E0A81AB10809F0B6CFDF91CF911F91DA
S11308400F91FF90EF90DF90CF90BF90AF900895FD
S1130850CF93DF93EC0165E372E00E94001765E338
S113086072E0CE0106960E94001765E372E0CE01A5
S11308700C960E9400171B8A1A8A1D8A1C8A1F8ADA
S11308801E8A61E082E00E942D1661E082E0DF9121
S1130890CF910C9469168F929F92AF92BF92CF9290
S11308A0DF92EF92FF920F931F93CF93DF9300D0C9
S11308B000D000D0CDB7DEB77C018B01CB010E9404
S11308C07B1862E871E0CE0101960E940017BE0118
S11308D06F5F7F4FC8010E9434184C01CE0101960E
S11308E00E94991665E871E0CE0101960E940017F6
S11308F0BE016F5F7F4FC8010E9434185C01CE01B6
S113090001960E9499166FE771E0CE0101960E944C
S11309100017BE016F5F7F4FC8010E9434186C013D
S1130920CE0101960E949916A4014E5F5F4F950176
S1130930B801CE0101960E943718BE016F5F7F4F48
S1130940C7010E946C17CE0101960E949916A50159
S11309504E5F5F4F9601B801CE0101960E94371891
S1130960570186E0A80EB11CBE016F5F7F4FC50121
S11309700E946C17CE0101960E949916F8012481F9
S11309803581A6014E5F5F4FB801CE0101960E94EA
S113099037188701045F1F4FBE016F5F7F4FC80187
S11309A00E946C17CE0101960E949916C7010E94FD
S11309B08C180E94D50EF701738B628BC5010E94BF
S11309C08C180E94D50EF701758B648BC8010E94A8
S11309D08C180E94D50EF701778B668B26960FB67E
S11309E0F894DEBF0FBECDBFDF91CF911F910F9161
S11309F0FF90EF90DF90CF90BF90AF909F908F903B
S1130A00089580E090E008954F925F926F927F92F4
S1130A10AF92BF92CF92DF92EF92FF920F931F9308
S1130A20CF93DF93EC015B01CA01B9012AA33BA375
S1130A304CA35DA32BED3FE049E450E40E94940FE6
S1130A406C877D878E879F87B9A2A8A2EEA2FFA29A
S1130A5008A719A7B601DD0C880B990B0E94080F93
S1130A609B01AC0160E070E080E090E40E94F70F2D
S1130A7020E030E040E85FE30E94080E6AA77BA70D
S1130A808CA79DA7DF91CF911F910F91FF90EF90BD
S1130A90DF90CF90BF90AF907F906F905F904F901A
S1130AA008952F923F924F925F926F927F928F920E
S1130AB09F92AF92BF92CF92DF92EF92FF920F93E9
S1130AC01F93CF93DF93CDB7DEB760970FB6F8943B
S1130AD0DEBF0FBECDBF1C01CB01BA0148015901D5
S1130AE020E030E040E752E40E94940F69877A875F
S1130AF08B879C87D1016D937D938D939C931397E2
S1130B0020E030E040E752E4C501B4010E94940FB4
S1130B102B013C01F101648375838683978320E074
S1130B2030E040E752E4C701B6010E94940FD101BE
S1130B3018966D937D938D939C931B9796962D9108
S1130B403D914D915C9199970E94940F6D877E879A
S1130B508F87988BF101608B718B828B938B84844C
S1130B609584A684B784A501940169857A858B85CB
S1130B709C850E946D0E6B017C01D10154966D938E
S1130B807D938D939C935797A5019401C301B20162
S1130B900E946D0E2B013C01F101608F718F828FD9
S1130BA0938FA50194016D857E858F8598890E9418
S1130BB06D0E4B015C01D1015C966D937D938D9319
S1130BC09C935F97A3019201C701B6010E94080E8E
S1130BD069877A878B879C87A3019201C701B60135
S1130BE00E94090E6B017C01A501940169857A8537
S1130BF08B859C850E94080E0E94D50E662E7A83F2
S1130C006983A5019401C701B6010E94090E0E94DF
S1130C10D50E762E7C836B83A5019401C701B601A2
S1130C20F7D70E94D50EF62E7E836D83A50194011D
S1130C3069857A858B859C85ECD70E94D50E862F95
S1130C40262F372F38872F83262D3A81472D5C8115
S1130C506F2D7E81988560960FB6F894DEBF0FBE27
S1130C60CDBFDF91CF911F910F91FF90EF90DF9057
S1130C70CF90BF90AF909F908F907F906F905F9038
S1130C804F903F902F900895CF92DF92EF92FF9272
S1130C900F931F93CF93DF93CDB7DEB72E970FB685
S1130CA0F894DEBF0FBECDBF61E08DE00E942D162B
S1130CB0609106018DE00E9469169091060181E021
S1130CC0892780930601C0906D02D0906E02E09057
S1130CD06F02F090700200917102109172022091E3
S1130CE073023091740240917502509176026091C2
S1130CF077027091780289E792E0D3DE29833A8300
S1130D004B835C836D837E838F8398870F811885E3
S1130D102D813E814B815C8169817A8180EC92E0F6
S1130D2033DC87EA92E01BDB21E041E061E087EA03
S1130D3092E01BDB6AE070E080E090E00E94901596
S1130D40C12CD12C80EAE82E80E4F82E970186018C
S1130D50B701A60187EA92E050DB6AE070E080E028
S1130D6090E00E9490156FE971E0CE0109960E940F
S1130D700017BE01675F7F4F87EA92E0C3DACE01B6
S1130D8009960E9499166AE070E080E090E00E9463
S1130D9090152E960FB6F894DEBF0FBECDBFDF912F
S1130DA0CF911F910F91FF90EF90DF90CF90089516
S1130DB0CF93DF9300D000D000D0CDB7DEB780EC66
S1130DC092E0B3DB811110C064EA71E0CE010196B8
S1130DD00E940017BE016F5F7F4F87EA92E092DAAC
S1130DE0CE0101960E94991680EC92E0A1DB81115C
S1130DF010C062EB71E0CE0101960E940017BE01A3
S1130E006F5F7F4F87EA92E07DDACE0101960E9400
S1130E10991680EC92E08FDB811110C060EC71E0D8
S1130E20CE0101960E940017BE016F5F7F4F87EAD3
S1130E3092E068DACE0101960E94991680EC92E065
S1130E407DDB811110C06EEC71E0CE0101960E9431
S1130E500017BE016F5F7F4F87EA92E053DACE013D
S1130E6001960E94991626960FB6F894DEBF0FBE1F
S1130E70CDBFDF91CF910895CF93DF9300D000D001
S1130E8000D0CDB7DEB726E040E855E260E070E080
S1130E9085EE93E00E942E1287EA92E025DA6CED4B
S1130EA071E0CE0101960E940017BE016F5F7F4F73
S1130EB087EA92E027DACE0101960E94991680EC27
S1130EC092E063DC80EC92E02DDB8823B9F065EEE0
S1130ED071E0CE0101960E940017BE016F5F7F4F43
S1130EE087EA92E00FDACE0101960E94991665EE28
S1130EF071E085EE93E00E94941311C059DF65EE12
S1130F0071E0CE0101960E940017BE016F5F7F4F12
S1130F1087EA92E0F7D9CE0101960E94991668EE0D
S1130F2073E080E090E00E94901526960FB6F89446
S1130F30DEBF0FBECDBFDF91CF910895CF92DF9278
S1130F40EF92FF920F931F9380EC92E0C4DA88EA49
S1130F5092E07EDC87EA92E0BFD988E0C82ED12CEB
S1130F601DECE12E1CECF12E0CEC1EE326E933E41F
S1130F704BE85DE36AE570E089E792E045DD65E30F
S1130F8072E087E692E00E94001765E372E081E672
S1130F9092E01F910F91FF90EF90DF90CF900C940F
S1130FA0001781E692E00E94991687E692E00E947B
S1130FB0991684EB92E00E9499168EEA92E00E94C0
S1130FC0991688EA92E00C949916CF93DF9300D097
S1130FD000D000D0CDB7DEB785EE93E00E945C115F
S1130FE0892B09F45DC085EE93E00E9476118A3066
S1130FF009F050C067E672E085EE93E00E94841326
S113100067E672E0CE0101960E946417BE016F5F2D
S11310107F4F88EA92E03FDCCE0101960E94991648
S11310206091BA027091BB02072E000C880B990BD9
S1131030EFD6609375027093760280937702909353
S113104078026091BC027091BD02072E000C880BDF
S1131050990BDED6609371027093720280937302CF
S1131060909374026091BE027091BF02072E000C2F
S1131070880B990BCDD660936D0270936E028093AA
S11310806F029093700265E372E087E692E00E943B
S11310907717A2CF682F87E692E00E94C6179CCFED
S11310A026960FB6F894DEBF0FBECDBFDF91CF9169
S11310B00895209123033091240328173907B9F4A4
S11310C09091E1028091E202981789F0E091E102A7
S11310D0F0E0ED51FD4F80812091E10230E02F5F7F
S11310E03F4F2F7333272093E10290E008958FEF51
S11310F09FEF08951F93CF93DF93DC015C962D91AE
S11311003C915D972115310539F481E090E0139607
S11311109C938E9312973DC05196ED91FC915297FA
S113112050969C915097892F80951FB75E964C914D
S11311305E9741FB772770F941FD6095F8944081F3
S1131140772311F0492B01C048234083E9012197FB
S1131150F1F748E0508160FF02C0592B01C05823C9
S11311605083E9012197F1F76695415099F7772368
S113117021F090818923808303C08081982B908300
S11311801FBF5C968D919C915D970197F1F721E0CB
S113119030E0C901DF91CF911F9108950895209106
S11311A02303309124032817390771F49091E10245
S11311B08091E202981741F0E091E102F0E0ED51F4
S11311C0FD4F808190E008958FEF9FEF0895209167
S11311D02303309124032817390769F48091E2022C
S11311E02091E10290E0805C9F4F821B910960E4B2
S11311F070E00C94C71880E090E00895E091230318
S1131200F0912403E817F90769F4A389B4899C9140
S11312108589809589238C9310922403109223034B
S113122081E0089580E00895CF93DF93EC018A8DE7
S11312309B8D892BE9F080912303909124038C17D3
S11312409D07B1F0009709F0D9DF8E8D8E7F8E8FC8
S11312501092E2021092E102D0932403C09323037C
S1131260EB89FC8990818D89892B808381E001C081
S113127080E0DF91CF9108951F920F920FB60F92E5
S113128011242F933F934F935F936F937F938F9387
S11312909F93AF93BF93EF93FF93E0912303F09158
S11312A02403309709F451C0968DA685B7858585AA
S11312B091FF04C09C91892329F447C09C91892300
S11312C009F043C0A389B4899C91858980958923B9
S11312D08C93868997890197F1F7608D718DA68526
S11312E0B785558538E020E0CB010197F1F7822FCF
S11312F090E095958795282F4C91452309F0206817
S1131300315091F7868D81FD20958091E20290E025
S113131001968F7399273091E102381749F0A09113
S1131320E202B0E0AD51BD4F2C938093E20203C0C2
S1131330868D8160868F828D938D0197F1F7A389C5
S1131340B4899C918589892B8C93FF91EF91BF91EE
S1131350AF919F918F917F916F915F914F913F9149
S11313602F910F900FBE0F901F90189521E032E03F
S1131370FC013183208342CF1F93CF93DF93EC0191
S1131380162F6E8D6695617081E06827812F0E940B
S1131390691661E0812F0E942D16612F70E0FB0118
S11313A0ED5CFD4FE491E88BFB01E95BFD4FE491BB
S11313B0F0E0EE0FFF1FEB59FD4F859194919A8B4E
S11313C0898BDF91CF911F9108951F93CF93DF9362
S11313D0EC01162F60E0812F0E942D168E8D81FD69
S11313E004C061E0812F0E9469161C87612F70E0A0
S11313F0FB01ED5CFD4FE491ED87FB01E95BFD4FE3
S1131400E491F0E0EE0FFF1FE55AFD4F85919491B2
S11314109F878E87DF91CF911F9108951F93CF935C
S1131420DF93EC01162F1B821A8288EE93E0A0E072
S1131430B0E08C839D83AE83BF8381E092E0998387
S113144088831F8A1E8A198E188E1B8E1A8E1D8EF3
S11314501C8E8E8D8E7F20FB81F98E8F642FCE01A2
S11314608BDF612FCE01DF91CF911F91AECFCF9350
S1131470DF93EC019A01AB011B8E1A8E198E188E24
S11314801F8A1E8A60E079E08DE390E00E94FC18D8
S1131490F9012430310518F0C901039702C081E035
S11314A090E09D8F8C8F6C85663108F069C0C9010E
S11314B0969587958431910510F0439702C081E099
S11314C090E09F8B8E8B369718F0C901059702C068
S11314D081E090E0998F888FC901880F991F280FA8
S11314E0391F36952795369527952D30310518F0F7
S11314F02C50310902C021E030E03B8F2A8F9091BB
S11315006800683050F021E06E3008F420E081E09B
S113151001C0880F2A95EAF701C084E0892B8093E3
S113152068008C85883038F08E3040F0863148F081
S113153020E030E008C02DE630E005C02BE630E0C6
S113154002C02CE630E03C8B2B8B883030F491E0E9
S113155001C0990F8A95EAF70EC0282F30E08E302B
S113156018F42850310902C02E50310991E001C00D
S1131570990F2A95EAF79D8B8C8D9D8D0197F1F734
S1131580CE01DF91CF9150CE1092920381E08093EF
S1131590900310928F0361E082E10E94691661E07A
S11315A083E10E946916E9EBF0E080818E7F8083FD
S11315B080818D7F808388E48093B80085E4809364
S11315C0BC000895413208F043C0909192039111F8
S11315D0FCCF91E090939203209390032FEF2093FC
S11315E0250310926A03240F2093690390939103B7
S11315F090919103880F892B8093910380918F039D
S1131600813061F410928F03809191038093BB0029
S11316108091BC0083FDF8CF85EC01C085EE8093FA
S1131620BC00809192038130E1F380916A038417B6
S113163010F440916A032BE633E0FB01D9018A2FB1
S1131640821B841718F48D918193F9CF842F089508
S113165080E008950F93413208F04AC090919203BC
S11316609111FCCF32E030939203009390033FEF4B
S11316703093250310926A0340936903FB016BE6E0
S113168073E0DB013A2F361B341718F431913D9384
S1131690F9CF1092910330919103880F832B80939B
S11316A0910380918F03813061F410928F038091B4
S11316B091038093BB008091BC0083FDF8CF85EC3F
S11316C001C085EE8093BC00222321F08091920317
S11316D08230D1F3809125038F3F79F080912503E7
S11316E0803241F080912503803331F094E005C0CD
S11316F091E003C092E001C093E0892F0F91089517
S113170040914703262F30E0240F311D213231054B
S1131710DCF4209192032430C9F4FC0180E090E0D1
S1131720861758F4309147032191DC01A75BBC4F25
S1131730A30FB11D2C930196F3CF80914703680F3B
S11317406093470380E0089581E0089582E008955E
S113175085ED8093BC008091BC0084FDFCCF109289
S11317609203089585EC8093BC001092920308952F
S11317701F920F920FB60F9211242F933F934F9302
S11317805F936F937F938F939F93AF93BF93EF93E5
S1131790FF938091B900887F803609F49DC070F56D
S11317A0883209F45CC090F4803109F455C038F4EF
S11317B0882309F4F3C0883009F44EC0F2C088319C
S11317C009F44DC0803209F45EC0EBC0803409F4E2
S11317D069C050F4803309F456C0883309F0E1C07D
S11317E080932503BFDFDDC0803509F44FC0883501
S11317F009F45DC0883409F0D4C0D2C0883909F432
S1131800C3C0A8F4883709F467C038F4883609F4EB
S113181063C0803709F460C0C4C0883809F4B4C018
S1131820803909F45FC0803809F0BBC05BC0803BDD
S113183009F482C038F4803A09F466C0883A09F49D
S11318407BC0AFC0803C09F4A3C0883C09F4A0C0AD
S1131850883B09F486C0A5C08091910310C0909183
S11318606A0380916903981770F5E0916A0381E037
S11318708E0F80936A03F0E0E559FC4F80818093DA
S1131880BB0085EC82C0809325038AC0E0916A0383
S113189081E08E0F80936A038091BB00F0E0E559EC
S11318A0FC4F808390916A03809169036AC0E09140
S11318B06A0381E08E0F80936A038091BB00F0E09D
S11318C0E559FC4F808380919003811169C081E0C8
S11318D080938F0384EA5DC083E080939203109227
S11318E02603CFCF80912603803208F04DC0E091CB
S11318F0260381E08E0F809326038091BB00F0E0E5
S1131900E95DFC4F8083BDCF2DDF809126038032BB
S113191030F4E0912603F0E0E95DFC4F1082609121
S1131920260370E0E0918B03F0918C0387E293E04F
S113193009951092260335C084E080939203109297
S1131940480310924703E0918D03F0918E030995AB
S113195080914703811105C081E080934703109271
S11319604903E091480381E08E0F80934803F0E03F
S1131970E75BFC4F80818093BB009091480380918A
S11319804703981708F47DCF85E88093BC0009C00D
S113199085EC8093BC001092920303C0109225033F
S11319A0D7DEFF91EF91BF91AF919F918F917F917E
S11319B06F915F914F913F912F910F900FBE0F90B8
S11319C01F9018958091C30390E02091C403821B5B
S11319D0910908959091C4038091C303981750F41A
S11319E0E92FF0E0EB53FC4F208130E09F5F9093B0
S11319F0C40302C02FEF3FEFC9010895E091C4036F
S1131A008091C303E81730F4F0E0EB53FC4F80817E
S1131A1090E008958FEF9FEF08950895CF92DF929D
S1131A20EF92FF920F931F93CF93DF937C01262FA6
S1131A30972F8A0180919F03882391F0C62FD72F77
S1131A406E01C40ED51ECC15DD0569F06991D70170
S1131A50ED91FC910190F081E02DC7010995F3CF40
S1131A60642F822F4DDEC801DF91CF911F910F911A
S1131A70FF90EF90DF90CF900895CF93DF931F9264
S1131A80CDB7DEB7698320919F032223D1F0209143
S1131A90A003203240F021E030E0FC0133832283B4
S1131AA080E090E014C08091A103E82FF0E0EE55AF
S1131AB0FC4F998190838F5F8093A1038093A0034F
S1131AC004C061E0CE0101961BDE81E090E00F903E
S1131AD0DF91CF910895FC011382128288EE93E086
S1131AE0A0E0B0E084839583A683B78383E192E08A
S1131AF09183808308951092C4031092C3031092BB
S1131B00A1031092A00340CD81E080939F036093D2
S1131B10C2031092A1031092A0030895F5CF0F936E
S1131B20062F21E04091A00362EA73E08091C20392
S1131B3091DD1092A1031092A00310929F030F91C4
S1131B4008954F925F926F927F92AF92BF92CF921D
S1131B50EF92FF920F931F93CF93DF935C01F62EC6
S1131B60D42F28013901EE2011F1CEDFCE2DC4305F
S1131B7008F0C3E0C150C0F0D501ED91FC91B8E08C
S1131B80CB9FC0011124A301920104C0569547952F
S1131B90379527958A95D2F7CA01B9010190F0814A
S1131BA0E02DC5010995E6CF60E0C501B8DF4D2FF2
S1131BB0D13208F040E22C2D65EC73E08F2D02DD6C
S1131BC01092C4038093C303DF91CF911F910F91AF
S1131BD0FF90EF90CF90BF90AF907F906F905F9009
S1131BE04F900895CF92EF920F931F93C22EE12C42
S1131BF000E010E09801A5DF1F910F91EF90CF90C6
S1131C00089521E0EFCF61E08ACF83E993E063CFC9
S1131C105058BB27AA270ED04DC13ED130F043D136
S1131C2020F031F49F3F11F41EF433C10EF4E0951B
S1131C30E7FB29C1E92F4FD180F3BA176207730775
S1131C408407950718F071F49EF567C10EF4E095CA
S1131C500B2EBA2FA02D0B01B90190010C01CA0162
S1131C60A0011124FF27591B99F0593F50F4503E0D
S1131C7068F11A16F040A22F232F342F4427585FFF
S1131C80F3CF469537952795A795F0405395C9F717
S1131C907EF41F16BA0B620B730B840BBAF09150CF
S1131CA0A1F0FF0FBB1F661F771F881FC2F70EC06E
S1131CB0BA0F621F731F841F48F487957795679541
S1131CC0B795F7959E3F08F0B3CF9395880F08F02A
S1131CD09927EE0F9795879508950CD0EBC0E3D024
S1131CE040F0DAD030F021F45F3F19F0CCC051114C
S1131CF015C1CFC0F0D098F39923C9F35523B1F39C
S1131D00951B550BBB27AA2762177307840738F066
S1131D109F5F5F4F220F331F441FAA1FA9F333D0C5
S1131D200E2E3AF0E0E830D091505040E695001C79
S1131D30CAF729D0FE2F27D0660F771F881FBB1F35
S1131D40261737074807AB07B0E809F0BB0B802D0F
S1131D50BF01FF2793585F4F2AF09E3F510568F05B
S1131D6092C0DCC05F3FECF3983EDCF38695779538
S1131D706795B795F7959F5FC9F7880F911D96955D
S1131D80879597F90895E1E0660F771F881FBB1FB9
S1131D90621773078407BA0720F0621B730B840B66
S1131DA0BA0BEE1F88F7E095089504D06894B1113A
S1131DB0B5C0089598D088F09F5790F0B92F99270F
S1131DC0B751A0F0D1F0660F771F881F991F1AF042
S1131DD0BA95C9F712C0B13081F09FD0B1E008952F
S1131DE09CC0672F782F8827B85F39F0B93FCCF3B0
S1131DF0869577956795B395D9F73EF49095809538
S1131E00709561957F4F8F4F9F4F0895E89409C057
S1131E1097FB3EF490958095709561957F4F8F4F19
S1131E209F4F9923A9F0F92F96E9BB279395F6952F
S1131E30879577956795B795F111F8CFFAF4BB0FAD
S1131E4011F460FF1BC06F5F7F4F8F4F9F4F16C011
S1131E50882311F096E911C0772321F09EE8872F9B
S1131E60762F05C0662371F096E8862F70E060E057
S1131E702AF09A95660F771F881FDAF7880F9695D0
S1131E80879597F9089597F99F6780E870E060E077
S1131E9008959FEF80EC089500240A9416161706FF
S1131EA018060906089500240A9412161306140647
S1131EB005060895092E0394000C11F4882352F0AA
S1131EC0BB0F40F4BF2B11F460FF04C06F5F7F4F62
S1131ED08F4F9F4F089557FD9058440F551F59F049
S1131EE05F3F71F04795880F97FB991F61F09F3F03
S1131EF079F087950895121613061406551FF2CF2C
S1131F004695F1DF08C0161617061806991FF1CF7B
S1131F1086957105610508940895E894BB276627A2
S1131F207727CB0197F908950BD0C4CFB5DF28F0FC
S1131F30BADF18F0952309F0A6CFABCF1124EECF6A
S1131F40CADFA0F3959FD1F3950F50E0551F629F10
S1131F50F001729FBB27F00DB11D639FAA27F00DFE
S1131F60B11DAA1F649F6627B00DA11D661F829F25
S1131F702227B00DA11D621F739FB00DA11D621F0A
S1131F80839FA00D611D221F749F3327A00D611D27
S1131F90231F849F600D211D822F762F6A2F112409
S1131FA09F5750408AF0E1F088234AF0EE0FFF1F5C
S1131FB0BB1F661F771F881F91505040A9F79E3F93
S1131FC0510570F060CFAACF5F3FECF3983EDCF38D
S1131FD0869577956795B795F795E7959F5FC1F7D0
S1131FE0FE2B880F911D9695879597F90895FA0110
S1131FF0EE0FFF1F30962105310599F1611571052A
S113200061F48038BFE39B0749F1689490388105F7
S113201061F08038BFEF9B0741F0992342F5FF3F01
S1132020E1053105210511F1E8940894E795D901FA
S1132030AA2329F4AB2FBE2FF85FD0F310C0FF5FA3
S113204070F4A695E0F7F73950F019F0FF3A38F438
S11320509F779F930CD00F9007FC905808953EF003
S113206018CF60E070E080E89FE308954FE79F7722
S11320705F934F933F932F939ED02F913F914F9116
S11320805F9152DF05C019F40EF0FDCE46CF01CFAB
S11320902ADFC8F39638C0F707F80F92E8942BE3C9
S11320A03AEA48EB5FE74EDF0F920F920F924DB77B
S11320B05EB70F92C0D0E8E6F0E016D04F915F9182
S11320C0EF91FF91E595EE1FFF1F49F0FE57E06881
S11320D04427EE0F441FFA95E1F74195550B32D092
S11320E00F9007FE26C00895DF93CF931F930F939D
S11320F0FF92EF92DF927B018C01689405C0DA2E87
S1132100EF011EDFFE01E894A591259135914591DB
S11321105591AEF3EF018EDDFE019701A801DA942B
S113212079F7DF90EF90FF900F911F91CF91DF919E
S113213008959B01AC0160E070E080E89FE3CDCDA1
S1132140A2CEACC0D0DEE8F39923D9F3940F511D8D
S1132150BBF39150504094F059F0882332F0660F4D
S1132160771F881F91505040C1F79E3F510544F797
S1132170880F911D9695879597F908955F3FACF068
S1132180983E9CF0BB27869577956795B79508F49C
S1132190B1609395C1F7BB0F58F711F460FFE8CF16
S11321A06F5F7F4F8F4F9F4FE3CFB8CE0EF076C057
S11321B070CE689468CE97DEC8F39923D1F3C6F342
S11321C0DF93CF931F930F93FF92C92FDD278823AB
S11321D02AF02197660F771F881FDAF720E030E096
S11321E040E85FEB9FE3883920F0803E30F0219691
S11321F08F770FDDE0E9F0E003C00BDDEDEBF0E0FD
S113220073DF8B01BE01EC01FB2E6F5771097595CD
S1132210771F880B990BFCDD28E132E741E35FE38C
S11322208FDEAF2D9801AE01FF900F911F91CF91DA
S1132230DF9100DD3FCEFA01DC01AA0FBB1F9B0139
S1132240AC01BF5728F422273327442750781FC0F6
S1132250B75188F4AB2F0024469537952795011C78
S1132260A395D2F3002069F0220F331F441FB395C6
S1132270DAF30DD0CDCC61307105A0E88A07B946F8
S113228030F49B01AC016627772788279078309635
S113229021F0208331834283538308959F3F31F09B
S11322A0915020F4879577956795B795880F911D80
S11322B09695879597F90895FC01918D228D892F24
S11322C090E0805C9F4F821B91098F73992708953A
S11322D0FC01918D828D981731F0828DE80FF11DEC
S11322E0858D90E008958FEF9FEF0895FC01918D07
S11322F0828D981761F0828DDF01A80FB11D5D9664
S11323008C91928D9F5F9F73928F90E008958FEFD1
S11323109FEF0895FC01538D448D252F30E0842FC9
S113232090E0821B930B541710F0CF9608950197F9
S1132330089588EE92E1892B41F085EE97E0892B90
S113234021F046D181110C94E5070895FC01848D98
S1132350DF01A80FB11DA35ABF4F2C91848D90E0CB
S113236001968F739927848FA689B7892C93A089A6
S1132370B1898C9180648C93938D848D981306C05D
S11323800288F389E02D80818F7D80830895CF9327
S1132390DF93EC01888D8823C1F0EA89FB89808171
S11323A085FD05C0A889B9898C9186FD0EC00FB63C
S11323B007FCF5CF808185FFF2CFA889B9898C917C
S11323C085FFEDCFCE01C2DFE8CFDF91CF91089535
S11323D0EF92FF920F931F93CF93DF93EC0181E071
S11323E0888F9B8D8C8D981305C0E889F98980812D
S11323F085FD23C0F62E0B8D10E00F5F1F4F0F736A
S11324001127E02E8C8DE8120BC00FB607FCFACF13
S1132410E889F989808185FFF5CFCE0197DFF2CF76
S11324208B8DFE01E80FF11DE35AFF4FF0820B8FF5
S1132430EA89FB898081806207C0EE89FF89608315
S1132440E889F98980818064808381E090E0DF916C
S1132450CF911F910F91FF90EF900895CF92DF924B
S1132460EF92FF921F93CF93DF93EC016A017B01FC
S1132470122FE889F98982E080834115514E610564
S11324807105A9F060E079E08DE390E0A701960181
S113249091D6DA01C9010197A109B109B695A795A9
S11324A097958795AC01411580E15807A0F0E8891C
S11324B0F989108260E874E88EE190E0A701960142
S11324C079D6BA01A901415051096109710976957A
S11324D0679557954795EC85FD855083EE85FF8577
S11324E04083188EEC89FD891083EA89FB898081F9
S11324F080618083EA89FB89808188608083EA899E
S1132500FB89808180688083EA89FB8980818F7D53
S11325108083DF91CF911F91FF90EF90DF90CF9058
S113252008951F920F920FB60F9211242F938F9339
S11325309F93EF93FF93E091F503F091F60380816D
S1132540E091FB03F091FC0382FD12C09081809125
S1132550FE038F5F8F732091FF03821751F0E09188
S1132560FE03F0E0EB51FC4F958F8093FE0301C016
S11325708081FF91EF919F918F912F910F900FBECA
S11325800F901F9018951F920F920FB60F9211245F
S11325902F933F934F935F936F937F938F939F9367
S11325A0AF93BF93EF93FF9385EE93E0CFDEFF915C
S11325B0EF91BF91AF919F918F917F916F915F91B7
S11325C04F913F912F910F900FBE0F901F90189530
S11325D085EE93E071DE21E0892B09F420E0822F5F
S11325E00895E5EEF3E01382128288EE93E0A0E012
S11325F0B0E084839583A683B78385E292E09183D8
S1132600808385EC90E09587848784EC90E09787BD
S1132610868780EC90E0918B808B81EC90E0938BAB
S1132620828B82EC90E0958B848B86EC90E0978B88
S1132630868B118E128E138E148E08950895A9D24E
S1132640FDDF0E943C07C9E9D1E10E9444062097BE
S1132650E1F36FDEFACFCF92DF92EF92FF920F9306
S11326601F93CF93DF936C017A018B01C0E0D0E01C
S1132670CE15DF0589F0D8016D918D01D601ED915C
S1132680FC910190F081E02DC6010995892B11F48C
S11326907E0102C02196ECCFC701DF91CF911F913B
S11326A00F91FF90EF90DF90CF9008956115710521
S11326B079F0FB0101900020E9F73197AF01461B47
S11326C0570BDC01ED91FC910280F381E02D09941C
S11326D080E090E00895DC01ED91FC91DB0114961B
S11326E04D915C9115976D917C910280F381E02D61
S11326F00994DCCFDC01ED91FC910190F081E02D97
S1132700099463E372E0D2CF0F931F93CF93DF93C7
S1132710EC01E1DF8C01CE01F4DF800F911FDF912A
S1132720CF911F910F9108950F931F93CF93DF9330
S1132730EC01BCDF8C01CE01E4DF800F911FDF913F
S1132740CF911F910F9108958F929F92AF92BF9254
S1132750CF92DF92EF92FF920F931F93CF93DF9369
S1132760CDB7DEB7A1970FB6F894DEBF0FBECDBFCD
S11327707C01D42EC52EDB0119A2223008F42AE0F4
S11327808E010F5D1F4F822E912CA12CB12C6D2D2B
S11327907C2DCD01A50194010DD5D22EC32EDA01D5
S11327A0015011096A3071058105910510F4605DCD
S11327B001C0695CF8016083232B242B252B39F796
S11327C0B801C70173DFA1960FB6F894DEBF0FBE40
S11327D0CDBFDF91CF911F910F91FF90EF90DF90CC
S11327E0CF90BF90AF909F908F900895CF92DF923B
S11327F0EF92FF920F931F93CF93DF93EC016A0143
S11328007B012115310579F4E881F9810190F0818A
S1132810E02D642FDF91CF911F910F91FF90EF90E6
S1132820DF90CF9009942A303105D9F477FF18C08E
S11328306DE260DF8C0144275527BA014C195D090C
S11328406E097F092AE0CE017FDF800F911FDF919F
S1132850CF911F910F91FF90EF90DF90CF9008954B
S11328602AE0B701A601CE01DF91CF911F910F910C
S1132870FF90EF90DF90CF9067CF0F931F93CF938C
S1132880DF93EC019A01AB01770F660B770BAEDF98
S11328908C01CE0136DF800F911FDF91CF911F9104
S11328A00F9108954F925F926F927F928F929F92B1
S11328B0AF92BF92CF92DF92EF92FF92CF93DF93CA
S11328C0EC016A017B01B22E9A01AB01C701B6018A
S11328D05AD4882319F066E372E024C02601370134
S11328E0E89477F82FEF3FEF4FE75FE7C301B201BA
S11328F04AD481110CC02FEF3FEF4FE75FE7C301CC
S1132900B20115D418161CF46AE372E00BC02FEF61
S11329103FEF4FE75FE4C701B60131D4181694F4D2
S11329206EE372E0CE01DF91CF91FF90EF90DF90E4
S1132930CF90BF90AF909F908F907F906F905F905B
S11329404F90B4CE2FEF3FEF4FE75FECC701B601D6
S1132950EED387FDE5CF20E030E0A901C701B60141
S1132960E6D387FF09C06DE2CE01C4DE4C01F7FA5D
S1132970F094F7F8F09402C0812C912CA12C60E023
S113298070E080E09FE3AB1439F020E030E040E2F7
S113299051E4A3D9A394F7CF9B01AC01C701B601BD
S11329A038D92B013C0106DA6B017C012FDA9B013B
S11329B0AC01C301B2012CD92B013C012AE0B701BF
S11329C0A601CE01C1DE7C01E80CF91CBB2029F074
S11329D06EE2CE018FDEE80EF91EDB2CDD2001F164
S11329E020E030E040E251E4C301B2019DDA2B0162
S11329F03C01E0D94B01A12CB12C2AE0B501A40182
S1132A00CE01A2DEE80EF91EC501B401FFD99B0177
S1132A10AC01C301B201FCD82B013C01DA94DECF36
S1132A20C701DF91CF91FF90EF90DF90CF90BF90DF
S1132A30AF909F908F907F906F905F904F9008958C
S1132A4031CF1F920F920FB60F9211242F933F9301
S1132A508F939F93AF93BF93809183049091840449
S1132A60A0918504B09186043091820423E0230F61
S1132A702D3720F40196A11DB11D05C026E8230FB2
S1132A800296A11DB11D2093820480938304909328
S1132A908404A0938504B093860480918704909164
S1132AA08804A0918904B0918A040196A11DB11DE6
S1132AB08093870490938804A0938904B0938A0434
S1132AC0BF91AF919F918F913F912F910F900FBE26
S1132AD00F901F9018953FB7F894809187049091B8
S1132AE08804A0918904B0918A0426B5A89B05C0E6
S1132AF02F3F19F00196A11DB11D3FBFBA2FA92F79
S1132B00982F8827820F911DA11DB11DBC01CD01F5
S1132B1042E0660F771F881F991F4A95D1F70895E1
S1132B208F929F92AF92BF92CF92DF92EF92FF92D9
S1132B306B017C01D0DF4B015C01C114D104E104C1
S1132B40F104F1F0F3D2C7DFDC01CB018819990954
S1132B50AA09BB09883E9340A105B10570F321E0A1
S1132B60C21AD108E108F10888EE880E83E0981EA5
S1132B70A11CB11CC114D104E104F10421F7DDCF7F
S1132B80FF90EF90DF90CF90BF90AF909F908F9089
S1132B900895789484B5826084BD84B5816084BDD1
S1132BA085B5826085BD85B5816085BDEEE6F0E0C2
S1132BB0808181608083E1E8F0E01082808182601E
S1132BC08083808181608083E0E8F0E0808181609F
S1132BD08083E1EBF0E0808184608083E0EBF0E0CF
S1132BE0808181608083EAE7F0E080818460808373
S1132BF0808182608083808181608083808180681D
S1132C0080831092C1000895833081F028F48130CC
S1132C1099F08230A1F008958730A9F08830B9F096
S1132C208430D1F4809180008F7D03C08091800036
S1132C308F7780938000089584B58F7702C084B520
S1132C408F7D84BD08958091B0008F7703C08091FB
S1132C50B0008F7D8093B0000895CF93DF9390E010
S1132C60FC01ED5CFD4F2491FC01E95BFD4F849177
S1132C70882361F190E0880F991FFC01E159FD4F11
S1132C80C591D491FC01EB59FD4FA591B49161110B
S1132C9009C09FB7F8948881209582238883EC919A
S1132CA02E230BC0623061F49FB7F8943881822FD1
S1132CB0809583238883EC912E2B2C939FBF06C091
S1132CC08FB7F894E8812E2B28838FBFDF91CF91A3
S1132CD008951F93CF93DF93282F30E0F901E15E2D
S1132CE0FD4F8491F901ED5CFD4FD491F901E95B4D
S1132CF0FD4FC491CC23C1F0162F811185DFEC2F39
S1132D00F0E0EE0FFF1FEB59FD4FA591B4918FB783
S1132D10F894111105C09C91ED2FE095E92302C0B0
S1132D20EC91ED2BEC938FBFDF91CF911F91089520
S1132D300895FC018081918158C3CF93DF93EC0106
S1132D4088819981009709F050D3198218821D82D5
S1132D501C821B821A82DF91CF9108950F931F93D7
S1132D60CF93DF93EC018B016F5F7F4F8881998153
S1132D70D4D3009731F0998388831B830A8381E03D
S1132D8001C080E0DF91CF911F910F910895CF93FF
S1132D90DF93EC0188819981892B29F08A819B81B9
S1132DA08617970758F4CE01D9DF882341F08C8128
S1132DB09D81892B19F4E881F981108281E0DF91EA
S1132DC0CF910895EF92FF920F931F93CF93DF93C8
S1132DD0EC017B018A01BA01DADF811103C0CE0163
S1132DE0ACDF06C01D830C83B7018881998174D43C
S1132DF0CE01DF91CF911F910F91FF90EF90089535
S1132E00FC011182108213821282158214826115D0
S1132E10710549F0FB0101900020E9F73197AF01FA
S1132E20461B570BCFCF08950F931F93CF93DF9378
S1132E308C01EB01FC01808191810097C1F06881D4
S1132E4079816115710591F028E936E1232B71F040
S1132E50428153812C813D814217530738F03CD481
S1132E608C819D81F8019583848312C0BED28881B0
S1132E709981F801918380838A819B8193838283E2
S1132E808C819D8195838483198218821B821A8286
S1132E901D821C82DF91CF911F910F910895CF93D2
S1132EA0DF93EC01FB018617970751F06081718174
S1132EB06115710521F04481558184DF01C03DDF36
S1132EC0CE01DF91CF910895FC011182108213820B
S1132ED0128215821482E3CFCF93DF93EC0186171D
S1132EE0970709F0A1DFCE01DF91CF910895CF9329
S1132EF0DF93EC016115710551F0FB010190002095
S1132F00E9F73197AF01461B570B5CDF01C015DFB2
S1132F10CE01DF91CF910895EF92FF920F931F930B
S1132F20CF93DF93FC01248135816115710511F480
S1132F3080E017C04115510599F07B01EC018A012D
S1132F40020F131FB80123DF882391F328813981ED
S1132F508C819D81B701820F931FBED31D830C8387
S1132F6081E0DF91CF911F910F91FF90EF90089531
S1132F706115710549F0FB0101900020E9F73197D3
S1132F80AF01461B570BC8CF80E00895CF93DF9362
S1132F9000D0CDB7DEB769831A8241E050E0BE01AC
S1132FA06F5F7F4FB9DF0F900F90DF91CF9108953E
S1132FB0EF92FF920F931F93CF93DF93CDB7DEB7BA
S1132FC064970FB6F894DEBF0FBECDBF7C01CB0172
S1132FD0BA018E010F5F1F4F22E044E052D1BC01C1
S1132FE0FC0101900020E9F73197AF01481B590B10
S1132FF0C70192DF64960FB6F894DEBF0FBECDBF53
S1133000DF91CF911F910F91FF90EF900895CF938F
S1133010DF93EC01FB0144815581608171817CDF88
S1133020811102C0CE0189DECE01DF91CF910895D6
S1133030CF93DF93FC01248135814217530778F441
S1133040FB01DC01CD91DC9160817181CE01840FA3
S1133050951F49D3009719F08C1B9D0B02C08FEF6D
S11330609FEFDF91CF91089540E050E0E1CFBF9210
S1133070CF92DF92EF92FF920F931F93CF93DF9340
S11330807C016B018A01E9012417350720F4812FA3
S11330908901C42FD82F65E372E0C701B1DED601E0
S11330A014968D919C91159708171907C8F48C17DD
S11330B09D0708F4EC01D601ED91FC911197EC0FFA
S11330C0FD1FB08010824D915C91BA01600F711F99
S11330D0C7010DDFD601ED91FC91EC0FFD1FB0820D
S11330E0C701DF91CF911F910F91FF90EF90DF9077
S11330F0CF90BF900895CF93DF93FC01C081D1811D
S1133100209739F08881882321F090E0D4D28993E4
S1133110F9CFDF91CF910895FC01808191810097CF
S113312009F0BEC260E070E0CB010895089503D0B9
S113313008F481E00895990F0008550FAA0BE0E800
S1133140FEEF16161706E807F907C0F01216130665
S1133150E407F50798F0621B730B840B950B39F4A5
S11331600A2661F0232B242B252B21F408950A260B
S113317009F4A140A6958FEF811D811D0895DBDF21
S113318008F48FEF0895D7DF880B990B089597FB08
S1133190072E16F4009406D077FD08D058D007FC0B
S11331A005D03EF4909581959F4F08957095619553
S11331B07F4F0895A1E21A2EAA1BBB1BFD010DC06F
S11331C0AA1FBB1FEE1FFF1FA217B307E407F507D3
S11331D020F0A21BB30BE40BF50B661F771F881FAF
S11331E0991F1A9469F760957095809590959B0145
S11331F0AC01BD01CF010895052E97FB16F4009490
S11332000FD057FD05D0D6DF07FC02D046F408C026
S113321050954095309521953F4F4F4F5F4F0895FE
S113322090958095709561957F4F8F4F9F4F08952E
S1133230A29FB001B39FC001A39F700D811D1124F3
S1133240911DB29F700D811D1124911D0895AA1B1B
S1133250BB1B51E107C0AA1FBB1FA617B70710F07D
S1133260A61BB70B881F991F5A95A9F780959095AF
S1133270BC01CD010895EE0FFF1F0590F491E02DE0
S11332800994EF920F931F93CF93DF93E80147FDC7
S113329002C034E001C034E1E42F440FFF0BF7FF18
S11332A003C0F195E195F109E32E022F2E2FAE0113
S11332B034D2CE01DF91CF911F910F91EF900895F9
S11332C0CF93DF938230910510F482E090E0E09197
S11332D08D04F0918E0420E030E0C0E0D0E030971F
S11332E011F14081518148175907C0F04817590717
S11332F061F482819381209719F09B838A832BC088
S113330090938E0480938D0426C02115310519F005
S11333104217530718F49A01BE01DF01EF0102803E
S1133320F381E02DDCCF2115310509F1281B390B80
S11333302430310590F412968D919C911397611568
S1133340710521F0FB019383828304C090938E0462
S113335080938D04FD01329644C0FD01E20FF31FFA
S113336081939193225031092D933C933AC020913B
S11333708B0430918C04232B41F420910201309171
S1133380030130938C0420938B042091000130912D
S113339001012115310541F42DB73EB740910401D7
S11333A050910501241B350BE0918B04F0918C04A2
S11333B0E217F307A0F42E1B3F0B2817390778F008
S11333C0AC014E5F5F4F2417350748F04E0F5F1F67
S11333D050938C0440938B048193919302C0E0E05A
S11333E0F0E0CF01DF91CF9108950F931F93CF9316
S11333F0DF93009709F48CC0FC0132971382128288
S113340000918D0410918E040115110581F4208121
S11334103181820F931F20918B0430918C042817E3
S1133420390779F5F0938C04E0938B0471C0D801CB
S113343040E050E0AE17BF0750F412962D913C9136
S11334401397AD012115310509F1D901F3CF9D0180
S1133450DA013383228360817181860F971F82177B
S1133460930769F4EC0128813981260F371F2E5FF9
S11334703F4F318320838A819B8193838283452BB1
S113348029F4F0938E04E0938D0442C01396FC93C8
S1133490EE931297ED01499159919E01240F351F26
S11334A0E217F30771F480819181840F951F0296CE
S11334B011969C938E938281938113969C938E9301
S11334C01297E0E0F0E0D80112968D919C91139749
S11334D0009719F0F8018C01F6CF8D919C91980119
S11334E02E5F3F4F820F931F20918B0430918C04E9
S11334F02817390769F4309729F410928E04109232
S11335008D0402C01382128210938C0400938B04E6
S1133510DF91CF911F910F910895A0E0B0E0E2E90F
S1133520FAE1DDC4EC01009719F4CB01C9DEB4C0A3
S1133530FC01E60FF71F9C0122503109E217F30743
S113354008F4A8C0D9010D911C911197061717070B
S1133550A8F00530110508F49BC0C801049786172C
S1133560970708F495C002501109061B170B019325
S113357011936D937C93CF0138DF8AC05B01A01A4D
S1133580B10A4C01800E911EA0918D04B0918E045D
S113359040E050E0E12CF12C109709F44AC0A81542
S11335A0B905D1F56D907C901197630182E0C80E46
S11335B0D11CCA14DB0480F1A3014A195B096A0116
S11335C082E0C80ED11C1296BC9012971396AC914F
S11335D0B5E0CB16D10440F0B282A383518340837B
S11335E0D9016D937C930AC00E5F1F4FC301800FF6
S11335F0911FF90191838083EB2DFA2FE114F104DB
S113360031F0D7011396FC93EE93129741C0F093D7
S11336108E04E0938D043CC08D919C9111974817C2
S1133620590708F4AC017D0112960D90BC91A02DB0
S1133630B3CF80918B0490918C0488159905E1F4A3
S113364046175707C8F48091000190910101009733
S113365041F48DB79EB74091040150910501841B3C
S1133660950BE817F907B0F4F0938C04E0938B04FE
S1133670F901718360830CC0CB0122DE7C010097C9
S113368049F0A801BE011FD0CE01AFDEC70104C0BE
S1133690CE0102C080E090E0CDB7DEB7EEE03BC4DF
S11336A066277727C7C19111F1C3803219F0895079
S11336B08550D0F708959111089581568A5108F4E0
S11336C0805285580895FB01DC0102C001900D92DF
S11336D041505040D8F70895FB01DC0101900D9250
S11336E00020E1F70895FB0151915523A9F0BF0192
S11336F0DC014D9145174111E1F759F4CD010190D9
S1133700002049F04D9140154111C9F3FB014111CD
S1133710EFCF81E090E0019708954F925F926F920E
S11337207F929F92AF92BF92CF92DF92EF92FF92DD
S11337300F931F93CF93DF93CDB7DEB729970FB6BF
S1133740F894DEBF0FBECDBF6A01122FB02E2BE35B
S1133750201720F0FF24F394F00E02C0BCE3FB2EEC
S11337600F2D27E0AE014F5F5F4FB8D2AC018981C6
S1133770982F9970913031F0E1FC06C0E0FE06C04C
S113378090E205C09DE203C09BE201C090E0EE2DF3
S1133790E07183FF3CC0911102C083E001C084E06A
S11337A0811718F4212F281B01C020E0E1110BC060
S11337B0F601822F30E2882319F031938150FBCF38
S11337C0C20ED11C20E0992329F0D6019C93F60166
S11337D031966F01C6010396E2FE0AC03EE4D601AB
S11337E03C9341E411964C93119712963C9306C076
S11337F03EE6F601308341E641833283FC01322FF9
S113380040E2332309F442C041933150FACF82FF9E
S113381044C0911102C083E001C084E0811718F410
S1133820212F281B01C020E0E1110BC0F601822FDB
S113383030E2882319F031938150FBCFC20ED11CA2
S113384020E0992329F0D6019C93F60131966F016B
S1133850C6010396E2FE0BC039E4D6013C933EE474
S113386011963C93119736E412963C9307C039E6BF
S1133870F60130833EE6318336E63283FC01322F93
S113388040E2332319F041933150FBCFFC01E20FA6
S1133890F11D10828EEF9FEFB7C0F1E0911101C0CE
S11338A0F0E06F2F70E01416150624F49A012F5FD0
S11338B03F4F02C021E030E0260F371FBB2029F024
S11338C06B2D70E06F5F7F4F02C060E070E0260FE9
S11338D0371F612F70E0261737071CF4121B212FA6
S11338E001C020E03E2D387159F4D601322F60E238
S11338F0332319F06D933150FBCFC20ED11C20E05D
S1133900FF2331F0D6019C93B6016F5F7F4F6B01AB
S1133910E1110BC0F601922F30E3992319F0319392
S11339209150FBCFC20ED11C20E09F2D940F3A8101
S1133930782F7071A72E84FF03C0313309F491509E
S1133940191624F4993018F098E001C091E0E42F9E
S1133950852F57FF02C0E0E080E06E2F782FE0E073
S1133960F0E0AEE29A2E3A01691A71082A01461A69
S1133970570A0B2D10E01195019511096F3F8FEF38
S1133980780729F4D6019C92C60101966C0146176A
S1133990570784F0661677066CF47F01E40CF51C77
S11339A0A1E0B0E0AC0FBD1FEA0EFB1ED7011196DB
S11339B0BC9002C090E3B92E615071093196C601E2
S11339C001967C016017710724F0D601BC926C014A
S11339D0D5CF6417750741F4363320F4353321F419
S11339E0A11002C081E3B82EF601B082F701822F44
S11339F090E2882319F091938150FBCFF701E20FF5
S1133A00F11D108280E090E029960FB6F894DEBF95
S1133A100FBECDBFDF91CF911F910F91FF90EF901B
S1133A20DF90CF90BF90AF909F907F906F905F900A
S1133A304F900895A0E0B0E0EFE1FDE150C2EC0149
S1133A407B016115710519F0DB018D939C938E0147
S1133A500F5F1F4F7880872D90E025DE892B11F0B2
S1133A60E801F5CFBDE27B1205C00F5F1F4F7980DF
S1133A70C1E008C0EBE27E1204C08E010E5F1F4F4E
S1133A807980C0E06801F1E0CF1AD10843E050E04A
S1133A9062EF70E0C601FDD1892BE9F4680122E0F0
S1133AA0C20ED11C45E050E06DEE70E0C601F1D1CC
S1133AB0892B21F4680187E0C80ED11CE114F104BC
S1133AC019F0D701CD92DC92C111FBC060E070E027
S1133AD080E89FE7FFC043E050E06AEE70E0C60173
S1133AE0D8D1892B51F4E114F10409F4EFC00E5F2D
S1133AF01F4FF70111830083E9C0680160E070E0A3
S1133B00CB0100E010E0F601D0EDD70DDA3050F52E
S1133B102C2F2260622E2C2F2870C2FF05C0211189
S1133B2027C00F5F1F4F24C0222311F00150110939
S1133B30A5E0B0E09B01AC01C4D14B015C01880C51
S1133B40991CAA1CBB1CC501B4016D0F711D811DFC
S1133B50911D6839A9E97A078A07A9E19A0740F013
S1133B60C66005C0DE3F51F4C3FD44C0C8606C2E7E
S1133B70BFEFCB1ADB0A7080C62DC5CF2D2F2F7D4A
S1133B802531C1F540814D3211F4C06106C04B327C
S1133B9021F0319621E030E006C03296D60111962C
S1133BA04C9122E030E0A0EDA40FAA3018F0E21B03
S1133BB0F30B20C040E050E04038BCE05B075CF40D
S1133BC09A01220F331F220F331F420F531F440F3A
S1133BD0551F4A0F511D3196DF0111972C91A0ED0D
S1133BE0A20FAA3048F3C4FF03C05195419551096F
S1133BF0040F151FC1FF07C0E114F10421F0319730
S1133C00D701ED93FC930E94060FC370C33019F0E3
S1133C106B017C0106C06B017C01F7FAF094F7F8A4
S1133C20F09420E030E0A901C701B60180DA8823CE
S1133C3009F444C017FF06C0119501951109C9E0A4
S1133C40D1E002C0C1E2D1E05E01B8E1AB1AB10833
S1133C504601BE2DAF2D90E2E92EF12C0E151F0565
S1133C6084F0FE012591359145915491B4018B2F37
S1133C709A2F0E94940F4B01B82FA92F0E191F09D8
S1133C80EDCF2497F594E794CA15DB0539F7640161
S1133C90EB2EFA2E8E2D880F8F2D881F8F3F41F02B
S1133CA020E030E0A901C701B60141DA811106C064
S1133CB082E290E09093900480938F04C701B60150
S1133CC009C060E070E080E89FEF04C060E070E04D
S1133CD080EC9FE7CDB7DEB7EEE01DC1283008F0D9
S1133CE027E03327DA01990F311D87FD9160009693
S1133CF06105710539F432602E5F3D9330E32A95F6
S1133D00E1F708959F3F30F080387105610509F0AF
S1133D103C5F3C5F3D93913008F08068911DDF93D8
S1133D20CF931F930F93FF92EF92192F987F96953D
S1133D30E92F96959695E90FFF27E158FE4F9927AD
S1133D403327EE24FF24A701E70105900894079484
S1133D5028F4360FE71EF81E491F511D660F771F02
S1133D60881F991F0694A1F70590079428F4E70E7D
S1133D70F81E491F561FC11D770F881F991F661F04
S1133D800694A1F70590079428F4F80E491F561FCE
S1133D90C71FD11D880F991F661F771F0694A1F7AF
S1133DA00590079420F4490F561FC71FD81F990F79
S1133DB0661F771F881F0694A9F7849110951770C2
S1133DC041F0D695C79557954795F794E7941A957A
S1133DD0C1F7E5E2F1E0689415901591359165918C
S1133DE0959105907FE27395E118F10A430B560B08
S1133DF0C90BD009C0F7E10CF11E431F561FC91FA0
S1133E00D01D7EF4703311F48A95E6CFE894015006
S1133E1030F0080F0AF40027021708F4202F239526
S1133E20022F7A3328F079E37D932A95E9F710C0BD
S1133E307D932A9589F606949795679537951795F6
S1133E401794E118F10A430B560BC90BD00998F0EB
S1133E5023957E9173957A3308F070E37C93201355
S1133E60B8F77E9170617D9330F0839571E37D9313
S1133E7070E32A95E1F71124EF90FF900F911F91C1
S1133E80CF91DF91992787FD9095089599278827E9
S1133E900895FB01DC014150504088F08D9181343C
S1133EA01CF08B350CF4805E659161341CF06B352D
S1133EB00CF4605E861B611171F3990B0895881BE5
S1133EC0FCCFB6D9A59F900DB49F900DA49F800DF3
S1133ED0911D112408952F923F924F925F926F92F9
S1133EE07F928F929F92AF92BF92CF92DF92EF9286
S1133EF0FF920F931F93CF93DF93CDB7DEB7CA1B07
S1133F00DB0B0FB6F894DEBF0FBECDBF09942A8831
S1133F10398848885F846E847D848C849B84AA84D9
S1133F20B984C884DF80EE80FD800C811B81AA8166
S1133F30B981CE0FD11D0FB6F894DEBF0FBECDBF31
S1133F40ED01089511E0C1E4D1E003C0FE0193D96D
S10F3F502196C334D107D1F7F894FFCFB9
S1133F5C00009104200001696E6974696E67005356
S1133F6C54523A00696E666F726D6174696F6E00BB
S1133F7C574B53543A007C413A53484F54204F4BBF
S1133F8C7C007C413A53484F54204552524F527C4A
S1133F9C007C423A4D4F544F52204F4B7C007C4294
S1133FAC3A4D4F544F52204552524F527C007C4351
S1133FBC3A4C4F43415445204F4B7C007C433A4C84
S1133FCC4F43415445204552524F527C005859504E
S1133FDC3A00583A00593A004F4B004D73673A0077
S1133FEC413A006B703A006B693A006B643A0053C7
S1133FFC484F54004C3120646973636F6E6E656373
S113400C74004C3220646973636F6E6E6563740064
S113401C523120646973636F6E6E6563740052323F
S113402C20646973636F6E6E65637400696E697482
S113403C696E673A007C4C696E6B7320746F204D0B
S113404C6F746F727320646F6E65217C00000000C6
S113405C007A082B130105CE08E7085908CF08008D
S113406C0000003D0D0E0D01050D0DE20CEA0CFED9
S113407C0C00000000E8112B138A11C7115C117697
S113408C1168110D0A006E616E00696E66006F7620
S105409C6600B8
S9030000FC
