S0150000736B657463685F6A756C3330612E737265631F
S11300003EC3000064C3000062C300000C94F911F5
S11300100C94F9110C94F9115AC3000058C3000050
S113002056C3000054C3000052C3000050C3000074
S11300304EC300004CC300004AC3000048C3000084
S11300400C94D81C44C300000C94421A0C94741AE7
S11300503EC300003CC300003AC3000038C30000A4
S11300600C94671334C3000007634236B79BD8A7C8
S11300701A39685618AEBAAB558C1D3CB7CC5763C9
S1130080BD6DEDFD753EF6177231BF000000803F77
S113009008000000BE922449123EABAAAA2ABECD93
S11300A0CCCC4C3E00000080BEABAAAAAA3E000005
S11300B00000BF000000803F0000000000084178FD
S11300C0D3BB4387D1133D190E3CC3BD4282AD2B34
S11300D03E68EC8276BED98FE1A93E4C80EFFFBE2C
S11300E001C4FF7F3F00000000004E414E494E49CD
S11300F05459494E46CDCCCC3D0AD7233C17B7D1F1
S11301003877CC2B329595E6241FB14F0A00002096
S1130110410000C84200401C4620BCBE4CCA1B0E15
S11301205AAEC59D7400000000003E5B4F5B3E3E2E
S11301306B4F6B3E1C3E7C3E1C183C7E3C181C578F
S11301407D571C1C5E7F5E1C00183C1800FFE7C333
S1130150E7FF0018241800FFE7DBE7FF30483A0602
S11301600E2629792926407F050507407F05253F6E
S11301705A3CE73C5A7F3E1C1C08081C1C3E7F145A
S1130180227F22145F5F005F5F06097F017F0066A4
S113019089956A606060606094A2FFA29408047EFE
S11301A0040810207E201008082A1C08081C2A08AD
S11301B0081E101010100C1E0C1E0C30383E383067
S11301C0060E3E0E06000000000000005F00000066
S11301D007000700147F147F14242A7F2A12231394
S11301E008646236495620500008070300001C22A8
S11301F041000041221C002A1C7F1C2A08083E08DA
S113020008008070300008080808080000606000DA
S113021020100804023E5149453E00427F400072CE
S1130220494949462141494D331814127F10274545
S11302304545393C4A494931412111090736494963
S11302404936464949291E00001400000040340084
S11302500000081422411414141414004122140838
S113026002015909063E415D594E7C1211127C7FF0
S1130270494949363E414141227F4141413E7F49FE
S11302804949417F090909013E414151737F0808E9
S1130290087F00417F41002040413F017F08142234
S11302A0417F404040407F021C027F7F0408107F52
S11302B03E4141413E7F090909063E4151215E7F8D
S11302C009192946264949493203017F01033F4060
S11302D040403F1F2040201F3F4038403F631408E8
S11302E0146303047804036159494D43007F414179
S11302F0410204081020004141417F04020102042C
S11303004040404040000307080020545478407F98
S1130310284444383844444428384444287F3854D2
S113032054541800087E090218A4A49C787F080479
S1130330047800447D40002040403D007F10284464
S11303400000417F40007C047804787C0804047831
S11303503844444438FC1824241818242418FC7CF9
S113036008040408485454542404043F44243C40DE
S113037040207C1C2040201C3C4030403C44281041
S113038028444C9090907C4464544C44000836417A
S11303900000007700000041360800020102040258
S11303A03C2623263C1EA1A161123A4040207A3803
S11303B05454555921555579412254547842215564
S11303C054784020545579400C1E527212395555B8
S11303D05559395454545939555454580000457C8E
S11303E0410002457D420001457C407D1211127D91
S11303F0F0282528F07C545545002054547C547C26
S11304000A097F4932494949323A4444443A324A12
S11304104848303A4141217A3A42402078009DA030
S1130420A07D3D4242423D3D4040403D3C24FF24AE
S113043024487E4943662B2FFC2F2BFF0929F620E5
S1130440C0887E090320545479410000447D413022
S113045048484A32384040227A007A0A0A727D0DAE
S113046019317D2629292F28262929292630484D66
S11304704020380808080808080808382F10C8ACB5
S1130480BA2F102834FA00007B000008142A142222
S113049022142A14085500550055AA55AA55AAFF36
S11304A055FF55FF000000FF00101010FF0014144A
S11304B014FF001010FF00FF1010F010F0141414BB
S11304C0FC001414F700FF0000FF00FF1414F404F0
S11304D0FC141417101F10101F101F1414141F00E5
S11304E0101010F0000000001F101010101F10104A
S11304F01010F010000000FF101010101010101059
S113050010FF10000000FF140000FF00FF00001F98
S113051010170000FC04F414141710171414F40436
S1130520F40000FF00F714141414141414F700F763
S1130530141414171410101F101F141414F414108E
S113054010F010F000001F101F0000001F14000026
S113055000FC140000F010F01010FF10FF1414142D
S1130560FF141010101F00000000F010FFFFFFFF29
S1130570FFF0F0F0F0F0FFFFFF0000000000FFFFCD
S11305800F0F0F0F0F3844443844FC4A4A4A347E54
S113059002020606027E027E026355494163384424
S11305A0443C04407E201E2006027E020299A5E7F8
S11305B0A5991C2A492A1C4C7201724C304A4D4D93
S11305C0303048784830BC625A463D3E494949007B
S11305D07E0101017E2A2A2A2A2A44445F44444097
S11305E0514A444040444A51400000FF0103E08026
S11305F0FF000008086B6B083612362436060F0914
S11306000F06000018180000001010003040FF0111
S113061001001F01011E00191D1712003C3C3C3C47
S113062000000000000000000800020100000304B4
S11306300700000000000000000102040810204030
S1130640800102040810200102040810200404049C
S11306500404040404020202020202030303030367
S11306600300000000250028002B000000000024E7
S11306700027002A0000E407B415A21A190811245F
S11306801FBECFEFD8E0DEBFCDBF16E0A0E0B1E0E3
S1130690EAEEF7E402C005900D92A030B107D9F755
S11306A028E0A0E0B6E001C01D92AD35B207E1F745
S11306B013E0CEE3D3E004C02197FE010E940220A0
S11306C0CB33D107C9F70E94D01A0C94E92398CCF4
S11306D0CF93DF93FC0188E0DF01C82F1D92CA95F8
S11306E0E9F7DF011896ED0119928A95E9F7148E5E
S11306F0158E168E178E10A280E090E0A0E8BFE35E
S1130700808B918BA28BB38B848B958BA68BB78BB1
S1130710808F918FA28FB38FDF91CF910895FC01C9
S1130720848D08950F931F93CF93C62F8A018FE56D
S113073097E00E942A156C2F70E08FE597E00E94E5
S11307403D1567E175E08FE597E00E942A1B4AE0BA
S113075050E0B8018FE597E00E94F41B8FE597E025
S1130760CF911F910F910C94B215CF92DF92EF921B
S1130770FF920F931F93CF93DF93EC016A017901EA
S1130780AB0161E0CFDFA60162E0CE01CBDFA701C0
S113079063E0CE01C7DFA80164E0CE01DF91CF9111
S11307A01F910F91FF90EF90DF90CF90BBCF4F92AE
S11307B05F926F927F92AF92BF92CF92DF92EF924D
S11307C0FF920F931F93CF93DF9300D000D01F921B
S11307D0CDB7DEB729013A01E982FA820B831C8383
S11307E08FE597E06D830E942A156D8170E08FE597
S11307F097E00E943D156AE175E08FE597E00E945D
S11308002A1B22E030E0B301A2018FE597E00E94A9
S1130810D71C6EE175E08FE597E00E942A1B22E069
S113082030E049815A816B817C818FE597E00E9499
S1130830D71C62E275E08FE597E00E942A1B22E054
S113084030E0B601A5018FE597E00E94D71C8FE543
S113085097E00E94321B8FE597E00F900F900F9066
S11308600F900F90DF91CF911F910F91FF90EF9018
S1130870DF90CF90BF90AF907F906F905F904F903C
S11308800C94B215AF92BF92CF92DF92EF92FF9287
S11308900F931F93CF93DF93EC01A88CB98CCA8C70
S11308A0DB8CEC88FD880E891F89288939894A895F
S11308B05B8961E07CDFA88CB98CCA8CDB8CEC880A
S11308C0FD880E891F89288939894A895B8962E0F4
S11308D0CE016DDFA88CB98CCA8CDB8CEC88FD88CA
S11308E00E891F89288939894A895B8963E0CE0189
S11308F05EDFA88CB98CCA8CDB8CEC88FD880E89F1
S11309001F89288939894A895B8964E0CE014FDFD0
S1130910DF91CF911F910F91FF90EF90DF90CF90D7
S1130920BF90AF900895CF93DF931F92CDB7DEB7FA
S11309308FE597E069830E942A15698170E041E0A0
S113094050E08FE597E00E94B0158FE597E00E9494
S11309509114892B39F08FE597E00F90DF91CF91B7
S11309600C9499140F90DF91CF910895AF92BF9298
S1130970CF92DF92EF92FF920F931F93CF93DF9367
S1130980EC0186E0A82EB12CC88CD98CEA8CFB8CA7
S11309900C891D892E893F89488959896A897B89EF
S11309A0CE0170DF61E0CE01BEDF6C0162E0CE01FA
S11309B0BADF7C0163E0CE01B6DF8C0164E0CE01D6
S11309C0B2DF9C0181E0C816D10469F482E0E81624
S11309D0F10449F40330110531F42430310519F4DC
S11309E081E08C8F04C01C8ECA94CD2811F481E060
S11309F08D8F82E0E816F10411F481E08E8F0330CC
S1130A00110511F481E08F8F2430310511F481E058
S1130A1088A381E0A81AB10809F0B6CFDF91CF917D
S1130A201F910F91FF90EF90DF90CF90BF90AF9008
S1130A300895CF93DF93EC0167E375E00E94591E9C
S1130A4067E375E0CE0106960E94591E67E375E0E0
S1130A50CE010C960E94591E1B8A1A8A1D8A1C8A72
S1130A601F8A1E8A61E082E00E94861D61E082E0A6
S1130A70DF91CF910C94C21D8F929F92AF92BF923F
S1130A80CF92DF92EF92FF920F931F93CF93DF9356
S1130A9000D000D000D0CDB7DEB77C018B01CB01F4
S1130AA00E94861F66E275E0CE0101960E94591EDF
S1130AB0BE016F5F7F4FC8010E943F1F4C01CE01F2
S1130AC001960E94F21D69E275E0CE0101960E9432
S1130AD0591EBE016F5F7F4FC8010E943F1F5C011A
S1130AE0CE0101960E94F21D6CE275E0CE010196E2
S1130AF00E94591EBE016F5F7F4FC8010E943F1FB5
S1130B006C01CE0101960E94F21DA4014E5F5F4F5D
S1130B109501B801CE0101960E94421FBE016F5F8C
S1130B207F4FC7010E94C51ECE0101960E94F21D8F
S1130B30A5014E5F5F4F9601B801CE0101960E9458
S1130B40421F570186E0A80EB11CBE016F5F7F4FA4
S1130B50C5010E94C51ECE0101960E94F21DF80136
S1130B6024813581A6014E5F5F4FB801CE01019605
S1130B700E94421F8701045F1F4FBE016F5F7F4FBA
S1130B80C8010E94C51ECE0101960E94F21DC70134
S1130B900E94971F0E948416F701738B628BC50114
S1130BA00E94971F0E948416F701758B648BC801FD
S1130BB00E94971F0E948416F701778B668B2696F6
S1130BC00FB6F894DEBF0FBECDBFDF91CF911F915A
S1130BD00F91FF90EF90DF90CF90BF90AF909F90D8
S1130BE08F90089580E090E008954F925F926F9205
S1130BF07F92AF92BF92CF92DF92EF92FF920F93C8
S1130C001F93CF93DF93EC015B01CA01B9012AA3BF
S1130C103BA34CA35DA32BED3FE049E450E40E94C9
S1130C2043176C877D878E879F87B9A2A8A2EEA2FF
S1130C30FFA208A719A7B601DD0C880B990B0E9427
S1130C40B7169B01AC0160E070E080E090E40E9484
S1130C50A61720E030E040E85FE30E94B7156AA7DA
S1130C607BA78CA79DA7DF91CF911F910F91FF9038
S1130C70EF90DF90CF90BF90AF907F906F905F9098
S1130C804F9008952F923F924F925F926F927F926E
S1130C908F929F92AF92BF92CF92DF92EF92FF9288
S1130CA00F931F93CF93DF93CDB7DEB760970FB643
S1130CB0F894DEBF0FBECDBF1C01CB01BA014801C1
S1130CC0590120E030E040E752E40E94431769876D
S1130CD07A878B879C87D1016D937D938D939C93A9
S1130CE0139720E030E040E752E4C501B4010E94CC
S1130CF043172B013C01F101648375838683978339
S1130D0020E030E040E752E4C701B6010E944317F7
S1130D10D10118966D937D938D939C931B97969612
S1130D202D913D914D915C9199970E9443176D8748
S1130D307E878F87988BF101608B718B828B938B6D
S1130D4084849584A684B784A501940169857A85F1
S1130D508B859C850E941C166B017C01D1015496E5
S1130D606D937D938D939C935797A5019401C30133
S1130D70B2010E941C162B013C01F101608F718F9E
S1130D80828F938FA50194016D857E858F859889C7
S1130D900E941C164B015C01D1015C966D937D93FE
S1130DA08D939C935F97A3019201C701B6010E94A2
S1130DB0B71569877A878B879C87A3019201C7013E
S1130DC0B6010E94B8156B017C01A50194016985E7
S1130DD07A858B859C850E94B7150E948416662EA1
S1130DE07A836983A5019401C701B6010E94B815ED
S1130DF00E948416762E7C836B83A5019401C7011F
S1130E00B6010E94B7150E948416F62E7E836D8368
S1130E10A501940169857A858B859C850E94B81506
S1130E200E948416862F262F372F38872F83262D4E
S1130E303A81472D5C816F2D7E81988560960FB62F
S1130E40F894DEBF0FBECDBFDF91CF911F910F91FC
S1130E50FF90EF90DF90CF90BF90AF909F908F90D6
S1130E607F906F905F904F903F902F90089526E071
S1130E7040E855E260E070E081EB97E00E94DF1902
S1130E808EE596E073DD8EE596E049DC811106C0BF
S1130E906FE275E081EB97E00C94451B08958F9207
S1130EA09F92AF92BF92CF92DF92EF92FF920F93F5
S1130EB01F93CF93DF93CDB7DEB728970FB6F8947F
S1130EC0DEBF0FBECDBF61E08DE00E94861D609144
S1130ED006018DE00E94C21D9091060181E08927E0
S1130EE080930601C0900C06D0900D06E0900E068B
S1130EF0F0900F0600911006109111062091120631
S1130F00309113064091140650911506609116060F
S1130F107091170688E196E0B5DE29833A834B8306
S1130F205C836D837E838F83988789809A80AB806E
S1130F30BC80CD80DE80EF80F88487019601A50116
S1130F40B4018EE596E011DC4AE050E0B40181EB97
S1130F5097E00E94EE1B66E375E081EB97E00E9448
S1130F602A1B4AE050E0B50181EB97E00E94EE1B9A
S1130F7066E375E081EB97E00E942A1B4AE050E0AB
S1130F80B60181EB97E00E94EE1B66E375E081EB0E
S1130F9097E00E942A1B4AE050E0B70181EB97E0FA
S1130FA028960FB6F894DEBF0FBECDBFDF91CF9168
S1130FB01F910F91FF90EF90DF90CF90BF90AF9073
S1130FC09F908F900C94F41BCF92DF92EF92FF923C
S1130FD00F931F9361E08FE796E00E94E1118EE585
S1130FE096E076DB86E496E024DD88E0C82ED12CFA
S1130FF01DECE12E1CECF12E0CEC1EE326E933E48F
S11310004BE85DE36AE570E088E196E0EEDD67E3D6
S113101075E086E096E00E94591E67E375E080E083
S113102096E01F910F91FF90EF90DF90CF900C947A
S1131030591E80E096E00E94F21D86E096E00E9430
S1131040F21D82E596E00E94F21D8CE496E00E9477
S1131050F21D86E496E00C94F21DCF93DF9300D04A
S113106000D000D0CDB7DEB781EB97E00E940D1918
S1131070892B09F460C081EB97E00E9427198A301C
S113108009F053C066E076E081EB97E00E94351BDF
S113109066E076E0CE0101960E94BD1EBE016F5F40
S11310A07F4F86E496E0E8DCCE0101960E94F21DB3
S11310B06091580670915906072E000C880B990B05
S11310C00E94B71660931406709315068093160653
S11310D09093170660915A0670915B06072E000CD8
S11310E0880B990B0E94B716609310067093110633
S11310F0809312069093130660915C0670915D06CE
S1131100072E000C880B990B0E94B71660930C06EF
S113111070930D0680930E0690930F0667E375E0B7
S113112086E096E00E94D01E9FCF682F86E096E06E
S11311300E94111F99CF26960FB6F894DEBF0FBEFA
S1131140CDBFDF91CF91089508952F923F924F9292
S11311505F926F927F928F929F92AF92BF92CF9243
S1131160DF92EF92FF920F931F93CF93DF9300D000
S11311701F92CDB7DEB74C017B836A836A015901A4
S113118017019801241B350B37FF03C031952195B6
S11311903109C5014A815B81841B950B97FF03C00C
S11311A091958195910951E059838217930714F021
S11311B019820BC09A2D8B2D5801092F182F9A8153
S11311C08B81DB82CA82C92ED82E8A819B81A81684
S11311D0B9065CF49C2D8D2D6801092F182F9A8176
S11311E08B81BB82AA82A92EB82E2501AA81BB813C
S11311F04A1A5B0A38016C187D0877FE03C07194A3
S113120061947108720157FE03C0BFEFEB1AFB0A29
S1131210F594E794C016D1061CF00FEF1FEF1FC022
S113122001E010E01CC0D401ED91FC91B98104846B
S1131230F585E02D9101BB23C1F04A815B81B601A4
S1131240C4010995E618F708F7FE04C0C00ED11EC4
S1131250E40CF51CEA81FB813196FB83EA834A8125
S11312605B81A416B506FCF604C0A6016A817B81E5
S1131270E7CF0F900F900F90DF91CF911F910F91B7
S1131280FF90EF90DF90CF90BF90AF909F908F90A2
S11312907F906F905F904F903F902F9008950895A6
S11312A0DC01ED91FC910084F185E02D09940F930C
S11312B01F93DC01ED91FC91048CF58DE02D0995D3
S11312C01F910F9108950F931F93DC01ED91FC91F1
S11312D0068CF78DE02D09951F910F910895EF92DB
S11312E0FF920F931F93DC01ED91FC9100A0F1A1FB
S11312F0E02D09951F910F91FF90EF9008950895A7
S1131300AF92BF92CF92DF92EF92FF920F931F930F
S1131310CF93DF9300D000D0CDB7DEB75C01690175
S1131320DC01ED91FC910284F385E02D4B835C8319
S113133069837A830995D501ED91FC914B815C8198
S1131340C40ED51EB1E0CB1AD1080488F589E02D6E
S11313507801860169817A819B01C5010995D501CE
S1131360ED91FC910688F789E02DC5010F900F904F
S11313700F900F90DF91CF911F910F91FF90EF90FD
S1131380DF90CF90BF90AF900994AF92BF92CF926D
S1131390DF92EF92FF920F931F93CF93DF9300D0CE
S11313A000D0CDB7DEB75C016901DC01ED91FC91A1
S11313B00284F385E02D4B835C8369837A830995EA
S11313C0D501ED91FC9169817A819B012C0D3D1D24
S11313D0215031090488F589E02D78014B815C8125
S11313E08A01C5010995D501ED91FC910688F7891B
S11313F0E02DC5010F900F900F900F90DF91CF91CA
S11314001F910F91FF90EF90DF90CF90BF90AF901E
S113141009944F925F926F927F928F929F92AF92B4
S1131420BF92CF92DF92EF92FF920F931F93CF93CD
S1131430DF9300D0CDB7DEB76C015A013901480102
S1131440DC01ED91FC910284F385E02D69837A83BC
S113145009956981462E7A81572E640C751CD60134
S1131460ED91FC91461457046CF40088F189E02D49
S113147087019401A501B201C6010995BFEF4B1A7A
S11314805B0AEDCF0688F789E02DC6010F900F9017
S1131490DF91CF911F910F91FF90EF90DF90CF904C
S11314A0BF90AF909F908F907F906F905F904F9080
S11314B00994EF92FF920F931F93DC01ED91FC913D
S11314C011971A960D911C911B9718962D913C918A
S11314D0199700A0F1A1E02D7B0140E050E060E00D
S11314E070E009951F910F91FF90EF900895CF92AE
S11314F0DF92EF92FF920F931F93CF93DF9300D06D
S113150000D000D0CDB7DEB76C01DC01ED91FC91C9
S11315106217730789F4041715072CF4942F852F89
S1131520A801092F182F041B150B98012F5F3F4F9B
S1131530048CF58DE02D12C04017510709F52617CC
S113154037072CF4962F872FB901292F382F261B04
S1131550370B2F5F3F4F068CF78DE02D8701C601B7
S1131560099526960FB6F894DEBF0FBECDBFDF9166
S1131570CF911F910F91FF90EF90DF90CF9008953E
S11315800284F385E02D2D833E834B835C83698342
S11315907A830995D601ED91FC910488F589E02DB3
S11315A02D813E814B815C8169817A81C6010995D7
S11315B0D601ED91FC910688F789E02DC6012696A7
S11315C00FB6F894DEBF0FBECDBFDF91CF911F9150
S11315D00F91FF90EF90DF90CF9009946F927F92DC
S11315E08F929F92AF92BF92CF92DF92EF92FF922F
S11315F00F931F93CF93DF93EC014B015A016901C1
S11316003801E881F9810284F385E02D0995E881A8
S1131610F9810288F389E02D87019601A501B401BF
S1131620CE010995E881F981A501460D571D415068
S113163051090288F389E02D9601B401CE01099580
S1131640E881F9810088F189E02D9301A501B401B5
S1131650CE010995E881F981C80CD91CB601615005
S113166071090088F189E02D9301A501CE01099546
S1131670E881F9810688F789E02DCE01DF91CF91C9
S11316801F910F91FF90EF90DF90CF90BF90AF909C
S11316909F908F907F906F9009940895FC016370E0
S11316A0658B8481958126813781613039F063307F
S11316B029F091878087338722870895318720878F
S11316C0938782870895FC011382128288E795E04C
S11316D0918380837583648357834683718760878E
S11316E053874287158A158614861786168681E0E5
S11316F0848B2FEF3FEF338B228B318B208B868BA8
S1131700178A118E108E08952F923F924F925F92F6
S11317106F927F928F929F92AF92BF92CF92DF92FD
S1131720EF92FF920F931F93CF93DF93CDB7DEB762
S11317306C970FB6F894DEBF0FBECDBF9C8F8B8F16
S11317405B011A011F830E833701C982DC0158969D
S11317504D915C9159974115510509F0E5C01896D2
S11317608D919C911997681779070CF0CAC11A9644
S11317708D919C911B97281639060CF0C2C18C2CB4
S1131780912CFB0136E0C39EE00DF11D1124FB8773
S1131790EA871E161F060CF0B4C1C40133E0880F9B
S11317A0991F3A95E1F79D878C87820D931D181632
S11317B019060CF0A6C157968C91811103C0203BE9
S11317C008F02F5FAB8DBC8DED91FC9111970284D5
S11317D0F385E02DCD012A8F09952A8DB5E02B9F45
S11317E090011124F5013596FF87EE872501BB8210
S11317F0AA82A9014A195B09598B488BC101089631
S11318009B8B8A8BE889F989E40DF51DEB5DFE4F0E
S1131810949198873D822C826101A885A0FF13C012
S1131820AB8DBC8DED91FC91B981B13031F4048460
S1131830F585E02D2E813F8116C00684F785E02DC5
S1131840EE80FF801AC0EE81FF816E167F06F1F0F4
S1131850AB8DBC8DED91FC91B981B13051F4048410
S1131860F585E02D9301A601B2018B8D9C8D099520
S11318700DC00684F785E02D7301840194014C8129
S11318805D816A817B818B8D9C8D0995E885E695C8
S1131890E8872C813D81280D391D3D832C833FEF42
S11318A0C31AD30A4A895B89C416D50609F0B5CF91
S11318B08A819B81880D991D9B838A839FEF491A96
S11318C0590AAE85BF854A165B0609F09BCFEE81A7
S11318D0FF816E167F0609F4F2C0EB8DFC8DA081AA
S11318E0B181F981F13079F4B5016B5F7F4F509686
S11318F0ED91FC915197830128E030E0A1018B8D9B
S11319009C8D0995DCC06A857B85681979091E96CA
S1131910ED91FC911F9773010C851D859401A10124
S11319208B8D9C8D0995CBC0FA0134969491329796
S113193065917491291BCB01B7E02B9F800D911DFC
S11319401124FA01259134913B8B2A8BFC0145919A
S113195054915B834A83FC013296C490319654912E
S11319605C87329614913196D4908981823058F0F4
S1131970612E012E000C7708AD2D0D2C000CBB0B35
S1131980B987A88704C019861886612C712CAB8D81
S1131990BC8DED91FC9111970284F385E02DCD016E
S11319A00995B9818B2E912C689CC001699C900D7E
S11319B0789C900D1124FC01EA0DFB1DF98BE88B3A
S11319C01C82712C612CE12F110FFF0B95012E0F3E
S11319D03F1F3B872A87AC0CB11CA5014E0F5F1F2C
S11319E05F8B4E8BC1018D0D911DD7FC9A95998FFC
S11319F0888F4C85641608F062C0862D90E0488577
S1131A005985480F591F489D9001499D300D589D97
S1131A10300D1124D901A20DB31DBF87AE87AA844E
S1131A20BB8448885988DC80BA85DB1AE88DF98D37
S1131A30E80FF91FFD8BEC8B8D2D8A0D2E893F89C4
S1131A40A216B306B9F1877061F48A819B8101966D
S1131A50EA89FB89AA81BB81EA0FFB1F74909B83EF
S1131A608A8377FE20C0AB8DBC8DED91FC91B9814A
S1131A70B13061F40484F585E02D2E813F814C89D9
S1131A805D89B5018B8D9C8D09950DC00684F78504
S1131A90E02DEE80FF80840194014E855F85B201C4
S1131AA08B8D9C8D0995770C480C591CEFEFAE1A61
S1131AB0BE0AC2CF3C813C0D3C8363949ACFAB8D6C
S1131AC0BC8DED91FC9111970688F789E02DCD012D
S1131AD06C960FB6F894DEBF0FBECDBFDF91CF91E9
S1131AE01F910F91FF90EF90DF90CF90BF90AF9038
S1131AF09F908F907F906F905F904F903F902F902A
S1131B0009946C960FB6F894DEBF0FBECDBFDF917B
S1131B10CF911F910F91FF90EF90DF90CF90BF90E6
S1131B20AF909F908F907F906F905F904F903F9079
S1131B302F900895AF92BF92CF92EF92FF920F939E
S1131B401F93CF93DF93EC01262F888D998D0097F7
S1131B5009F03FC06A3059F41D861C862C898E8595
S1131B609F8538E0239F800D911D112440C06D3066
S1131B7009F4A8C08E898823C1F03C898C859D8591
S1131B8046E0349F800D911D1124488559854817DE
S1131B9059075CF41D861C868E859F8548E0349F1A
S1131BA0800D911D11249F878E87EA88FB88088900
S1131BB019894E855F856C857D85CC88CE01A4DD31
S1131BC02C898C859D8536E0239F800D911D1124E1
S1131BD042C06A3079F41D861C862C89FC01369635
S1131BE0E4918E859F852E9F800D911D11249F87E2
S1131BF08E8768C06D3009F465C0FC013496349159
S1131C00631708F45FC03196E491E61708F45AC0EC
S1131C10FC013296A590B490462F50E0431B510925
S1131C2037E0349FB001359F700D1124A60EB71E06
S1131C30F501329634913196E491332311F0E11198
S1131C400DC0F5013496E4912C898C859D85E29F25
S1131C50800D911D11249D878C8734C0F501359624
S1131C6044915E89552311F16C89E32FF0E0E40F70
S1131C70F11D47FDFA956E9FD0016F9FB00D1124A1
S1131C804C855D854A0F5B1FE885F985E417F507E8
S1131C906CF41D861C86FC013696E4918E859F8526
S1131CA06E9F800D911D11249F878E87EA88FB8883
S1131CB0088919894E855F856C857D85CC88CE0120
S1131CC023DDBFCF81E090E0DF91CF911F910F9191
S1131CD0FF90EF90CF90BF90AF900895FC0185895D
S1131CE00895FC01808591850895FC018285938582
S1131CF008950F931F93CF93DF93DC01FB01559657
S1131D008C915597823089F0833021F1813009F02C
S1131D10E6C014968D919C911597BC01641B750BBC
S1131D20AB0141505109BF011DC014966D917C91C6
S1131D301597CB018E1B9F0BFC0116968D919C91E0
S1131D401797BC01641B750BAB0141505109E21B91
S1131D50F30BC5C016966D917C9117976E1B7F0B84
S1131D60621B730B57FD1AC114968D919C911597A4
S1131D70481759070CF012C177FF04C0260F371F0C
S1131D8060E070E016968D919C911797FB01E20F2D
S1131D90F31F8E179F071CF49C01261B370B12168A
S1131DA013060CF0FBC0A22F862F86958695869588
S1131DB090E8899F400D511D1124FA01E95EFE4F00
S1131DC06770A9F198E0961B492F50E0EA01C15FC2
S1131DD0DE4F8881291790F4421B51092FEF30E020
S1131DE002C0359527954A95E2F782230130110503
S1131DF041F068F00230110589F0D0C001301105BE
S1131E0019F42081822B0CC00130110520F4809537
S1131E102081822305C00230110531F420818227FC
S1131E208083A91708F4BAC0A91BE058FF4FA83053
S1131E3048F10230110559F4EF018A2F98819095E9
S1131E409883C058DF4F88508830C0F732C081E093
S1131E500130110509F080E08195EF019A2F888304
S1131E60C058DF4F98509830D0F788EF8A0F869586
S1131E708695869560E8869FE00DF11D1124E05853
S1131E80FF4FA770AA2309F489C0B0E0A95FBE4F31
S1131E908C910130110529F038F002301105E1F080
S1131EA07DC09081892B03C0809590818923808394
S1131EB075C088EF8A0F86958695869570E8879F0A
S1131EC0E00DF11D1124E058FF4FA77009F466C01E
S1131ED0B0E0A95FBE4F8C9190818927E8CF57FD70
S1131EE05DC016968D919C911797481759070CF071
S1131EF055C0F7FF04C02E0F3F1FE0E0F0E014963A
S1131F008D919C911597BF01620F731F86179707D8
S1131F101CF49C012E1B3F0B121613060CF03EC042
S1131F20CA0157FD079663E0959587956A95E1F791
S1131F309695982F882797958795E80FF91FE95E5E
S1131F40FE4F4770552781E090E001C0880F4A9505
S1131F50EAF7482F0130110539F078F00230110505
S1131F60E9F42E0F3F1F13C02E0F3F1FE217F30794
S1131F70A9F08081842B8193F9CF80952E0F3F1F88
S1131F80E217F30759F0908198239193F9CFE21760
S1131F90F30721F0808184278193F9CFDF91CF91DA
S1131FA01F910F9108950F931F93CF93DF93DC013B
S1131FB055968C915597823071F0833009F18130B8
S1131FC009F08CC01496ED91FC911597E41BF50B68
S1131FD0E21BF30B20C01496ED91FC911597CF01F1
S1131FE0861B970BBC01615071091696ED91FC910B
S1131FF01797CF01841B950BAC01421B530B6EC08A
S11320001696ED91FC911797CF01861B970BBC0197
S113201061507109FA0177FD1BC116968D919C914F
S11320201797681779070CF013C1F7FF04C02E0F38
S11320303F1FE0E0F0E014968D919C911597AF015D
S1132040420F531F841795071CF49C012E1B3F0B52
S1132050121613060CF0FCC0CB0177FD079643E083
S1132060959587954A95E1F79695982F88279795A2
S11320708795E80FF91FE95EFE4F6770772781E0C7
S113208090E001C0880F6A95EAF7482F01301105E6
S113209041F088F00230110509F0DAC02E0F3F1F1D
S11320A015C02E0F3F1FE217F30709F4D1C080813A
S11320B0842B8193F8CF80952E0F3F1FE217F307EF
S11320C009F4C6C0908198239193F8CFE217F307DF
S11320D009F4BEC0808184278193F8CF77FDB8C00E
S11320E014968D919C911597681779070CF0B0C0E0
S11320F057FF04C0240F351F40E050E016968D9121
S11321009C911797FA01E20FF31F8E179F071CF497
S11321109C01241B350B121613060CF099C0A22F38
S1132120842F86958695869590E8899F600D711D0C
S11321301124FB01E95EFE4F4770A9F198E0941B5E
S1132140492F50E0EA01C15FDE4F8881291790F4DE
S1132150421B51092FEF30E002C0359527954A956F
S1132160E2F782230130110541F068F002301105D5
S113217089F06EC00130110519F42081822B0CC046
S11321800130110520F480952081822305C002309E
S1132190110531F4208182278083A91708F458C0DF
S11321A0A91BE058FF4FA83048F10230110559F43B
S11321B0EF018A2F988190959883C058DF4F8850FB
S11321C08830C0F730C081E00130110509F080E0AB
S11321D08195EF019A2F8883C058DF4F985098302B
S11321E0D0F788EF8A0F86958695869590E8899F23
S11321F0E00DF11D1124E058FF4FA770AA2341F10F
S1132200B0E0A95FBE4F8C910130110529F038F080
S113221002301105D1F01CC09081892B18C0809523
S11322209081892314C088EF8A0F869586958695B8
S113223090E8899FE00DF11D1124E058FF4FA7702D
S113224039F0B0E0A95FBE4F8C91908189278083DB
S1132250DF91CF911F910F910895CF92DF92EF926A
S1132260FF920F931F93CF93DF937C018B01EA01BD
S1132270690177FD9DC035DD081719070CF098C07A
S1132280D7FD96C0C70131DDC817D9070CF090C03F
S1132290C70124DD823009F07FC0F70164817581B4
S11322A0CB01801B910B8C01015011094681578190
S11322B0FA01EC1BFD0BEF0121970BC0813049F4AF
S11322C0F701848195818C1B9D0BE8018C010150E1
S11322D01109F1E0CF16D10431F010F182E0C816F3
S11322E0D104E1F165C0FE01D7FD379643E0F595D1
S11322F0E7954A95E1F7F695FE2FEE27F795E795D2
S11323000E0F1F1FF801E95EFE4FC770DD2781E045
S113231090E001C0880FCA95EAF79081892B3AC0F2
S1132320FE01D7FD379623E0F595E7952A95E1F769
S1132330F695FE2FEE27F795E7950E0F1F1FF80170
S1132340E95EFE4FC770DD2781E090E001C0880F91
S1132350CA95EAF78095908189231CC0FE01D7FDB8
S1132360379683E0F595E7958A95E1F7F695FE2F84
S1132370EE27F795E7950E0F1F1FF801E95EFE4F54
S1132380C770DD2781E090E001C0880FCA95EAF7A5
S11323909081892780830CC0833009F08FCFF701A7
S11323A086819781801B910B8E01EC01219791CF3F
S11323B0DF91CF911F910F91FF90EF90DF90CF901D
S11323C008951F93CF93DF93EC01162F40E450E060
S11323D060E870E078D984EA95E0998388838FEF88
S11323E08C8F88A38E8F8D8F1F8FDF91CF911F913C
S11323F008951F920F920FB60F9211242F933F93BB
S11324004F935F936F937F938F939F93AF93BF93F8
S1132410EF93FF93E091EF06F091F006309709F403
S113242051C0968DA685B785858591FF04C09C9182
S1132430892329F447C09C91892309F043C0A389C7
S1132440B4899C918589809589238C938689978901
S11324500197F1F7608D718DA685B785558538E0B4
S113246020E0CB010197F1F7822F90E095958795B5
S1132470282F4C91452309F02068315091F7868D1F
S113248081FD20958091AE0690E001968F73992787
S11324903091AD06381749F0A091AE06B0E0A155D1
S11324A0B94F2C938093AE0603C0868D8160868FCE
S11324B0828D938D0197F1F7A389B4899C918589C5
S11324C0892B8C93FF91EF91BF91AF919F918F9145
S11324D07F916F915F914F913F912F910F900FBE1C
S11324E00F901F90189510925E0781E080935C070F
S11324F010925B0761E082E10E94C21D61E083E10A
S11325000E94C21DE9EBF0E080818E7F8083808190
S11325108D7F808388E48093B80085E48093BC0039
S11325200895413208F043C090915E079111FCCFA9
S113253091E090935E0720935C072FEF2093F106C0
S113254010923607240F2093350790935D079091DE
S11325505D07880F892B80935D0780915B0781302D
S113256061F410925B0780915D078093BB008091BA
S1132570BC0083FDF8CF85EC01C085EE8093BC00E0
S113258080915E078130E1F380913607841710F45F
S11325904091360727E337E0FB01D9018A2F821BDC
S11325A0841718F48D918193F9CF842F089580E0D6
S11325B008950F93413208F04AC090915E0791113B
S11325C0FCCF32E030935E0700935C073FEF30931B
S11325D0F1061092360740933507FB0167E377E075
S11325E0DB013A2F361B341718F431913D93F9CFA0
S11325F010925D0730915D07880F832B80935D07F0
S113260080915B07813061F410925B0780915D07D4
S11326108093BB008091BC0083FDF8CF85EC01C0A2
S113262085EE8093BC00222321F080915E078230E6
S1132630D1F38091F1068F3F79F08091F1068032D9
S113264041F08091F106803331F094E005C091E0CF
S113265003C092E001C093E0892F0F910895409147
S11326601307262F30E0240F311D21323105DCF40D
S113267020915E072430C9F4FC0180E090E08617C5
S113268058F4309113072191DC01AB5EB84FA30FCE
S1132690B11D2C930196F3CF80911307680F6093BB
S11326A0130780E0089581E0089582E0089585EDA0
S11326B08093BC008091BC0084FDFCCF10925E0727
S11326C0089585EC8093BC0010925E0708951F92D4
S11326D00F920FB60F9211242F933F934F935F9352
S11326E06F937F938F939F93AF93BF93EF93FF93D6
S11326F08091B900887F803609F49DC070F58832D6
S113270009F45CC090F4803109F455C038F488238E
S113271009F4F3C0883009F44EC0F2C0883109F4DA
S11327204DC0803209F45EC0EBC0803409F469C046
S113273050F4803309F456C0883309F0E1C0809323
S1132740F106BFDFDDC0803509F44FC0883509F4D8
S11327505DC0883409F0D4C0D2C0883909F4C3C03C
S1132760A8F4883709F467C038F4883609F463C0DC
S1132770803709F460C0C4C0883809F4B4C0803913
S113278009F45FC0803809F0BBC05BC0803B09F42A
S113279082C038F4803A09F466C0883A09F47BC0F0
S11327A0AFC0803C09F4A3C0883C09F4A0C0883BB6
S11327B009F486C0A5C080915D0710C090913607CA
S11327C080913507981770F5E091360781E08E0FF8
S11327D080933607F0E0E95CF84F80818093BB007A
S11327E085EC82C08093F1068AC0E091360781E0CF
S11327F08E0F809336078091BB00F0E0E95CF84FC0
S1132800808390913607809135076AC0E09136073E
S113281081E08E0F809336078091BB00F0E0E95C85
S1132820F84F808380915C07811169C081E08093B7
S11328305B0784EA5DC083E080935E071092F20632
S1132840CFCF8091F206803208F04DC0E091F206BD
S113285081E08E0F8093F2068091BB00F0E0ED5092
S1132860F94F8083BDCF2DDF8091F206803230F4A2
S1132870E091F206F0E0ED50F94F10826091F2061B
S113288070E0E0915707F091580783EF96E00995BF
S11328901092F20635C084E080935E07109214070C
S11328A010921307E0915907F0915A070995809106
S11328B01307811105C081E0809313071092150757
S11328C0E091140781E08E0F80931407F0E0EB5E33
S11328D0F84F80818093BB00909114078091130777
S11328E0981708F47DCF85E88093BC0009C085EC77
S11328F08093BC0010925E0703C01092F106D7DEED
S1132900FF91EF91BF91AF919F918F917F916F91C3
S11329105F914F913F912F910F900FBE0F901F9099
S1132920189580918F0790E020919007821B910960
S113293008959091900780918F07981750F4E92F8C
S1132940F0E0EF56F84F208130E09F5F90939007BE
S113295002C02FEF3FEFC9010895E09190078091E5
S11329608F07E81730F4F0E0EF56F84F808190E0DD
S113297008958FEF9FEF08950895CF92DF92EF921D
S1132980FF920F931F93CF93DF937C01262F972FF2
S11329908A0180916B07882391F0C62FD72F6E018F
S11329A0C40ED51ECC15DD0569F06991D701ED91F2
S11329B0FC910190F081E02DC7010995F3CF642FBC
S11329C0822F4DDEC801DF91CF911F910F91FF90AF
S11329D0EF90DF90CF900895CF93DF931F92CDB700
S11329E0DEB7698320916B072223D1F020916C0715
S11329F0203240F021E030E0FC013383228380E088
S1132A0090E014C080916D07E82FF0E0E259F84F90
S1132A10998190838F5F80936D0780936C0704C0C6
S1132A2061E0CE0101961BDE81E090E00F90DF9122
S1132A30CF910895FC011382128288EE93E0A0E006
S1132A40B0E084839583A683B78380ED95E091837A
S1132A50808308951092900710928F0710926D074B
S1132A6010926C0740CD81E080936B0760938E07D2
S1132A7010926D0710926C070895F5CF0F93062FEF
S1132A8021E040916C076EE677E080918E0791DD3E
S1132A9010926D0710926C0710926B070F910895B6
S1132AA04F925F926F927F92AF92BF92CF92EF92CA
S1132AB0FF920F931F93CF93DF935C01F62ED42FD5
S1132AC028013901EE2011F1CEDFCE2DC43008F0FB
S1132AD0C3E0C150C0F0D501ED91FC91B8E0CB9FAB
S1132AE0C0011124A301920104C05695479537955E
S1132AF027958A95D2F7CA01B9010190F081E02D9A
S1132B00C5010995E6CF60E0C501B8DF4D2FD1328C
S1132B1008F040E22C2D61E977E08F2D02DD109260
S1132B20900780938F07DF91CF911F910F91FF90B2
S1132B30EF90CF90BF90AF907F906F905F904F9049
S1132B400895CF92EF920F931F93C22EE12C00E0D1
S1132B5010E09801A5DF1F910F91EF90CF90089599
S1132B6021E0EFCF61E08ACF8FE597E063CF505843
S1132B70BB27AA270ED04DC13ED130F043D120F05F
S1132B8031F49F3F11F41EF433C10EF4E095E7FBDA
S1132B9029C1E92F4FD180F3BA176207730784075D
S1132BA0950718F071F49EF567C10EF4E0950B2EAD
S1132BB0BA2FA02D0B01B90190010C01CA01A0018B
S1132BC01124FF27591B99F0593F50F4503E68F1E6
S1132BD01A16F040A22F232F342F4427585FF3CF27
S1132BE0469537952795A795F0405395C9F77EF4F8
S1132BF01F16BA0B620B730B840BBAF09150A1F041
S1132C00FF0FBB1F661F771F881FC2F70EC0BA0FC6
S1132C10621F731F841F48F4879577956795B7954E
S1132C20F7959E3F08F0B3CF9395880F08F0992746
S1132C30EE0F9795879508950CD0EBC0E3D040F044
S1132C40DAD030F021F45F3F19F0CCC0511115C136
S1132C50CFC0F0D098F39923C9F35523B1F3951B52
S1132C60550BBB27AA2762177307840738F09F5FA9
S1132C705F4F220F331F441FAA1FA9F333D00E2E18
S1132C803AF0E0E830D091505040E695001CCAF785
S1132C9029D0FE2F27D0660F771F881FBB1F26174A
S1132CA037074807AB07B0E809F0BB0B802DBF011D
S1132CB0FF2793585F4F2AF09E3F510568F092C05A
S1132CC0DCC05F3FECF3983EDCF38695779567951F
S1132CD0B795F7959F5FC9F7880F911D96958795CE
S1132CE097F90895E1E0660F771F881FBB1F6217ED
S1132CF073078407BA0720F0621B730B840BBA0BAB
S1132D00EE1F88F7E095089504D06894B111B5C01A
S1132D10089598D088F09F5790F0B92F9927B7510C
S1132D20A0F0D1F0660F771F881F991F1AF0BA958B
S1132D30C9F712C0B13081F09FD0B1E008959CC0B2
S1132D40672F782F8827B85F39F0B93FCCF3869581
S1132D5077956795B395D9F73EF4909580957095DE
S1132D6061957F4F8F4F9F4F0895E89409C097FB5B
S1132D703EF490958095709561957F4F8F4F9F4F4E
S1132D809923A9F0F92F96E9BB279395F695879592
S1132D9077956795B795F111F8CFFAF4BB0F11F455
S1132DA060FF1BC06F5F7F4F8F4F9F4F16C08823FC
S1132DB011F096E911C0772321F09EE8872F762F32
S1132DC005C0662371F096E8862F70E060E02AF073
S1132DD09A95660F771F881FDAF7880F969587955F
S1132DE097F9089597F99F6780E870E060E0089587
S1132DF09FEF80EC089500240A941616170618060F
S1132E000906089500240A941216130614060506EA
S1132E100895092E0394000C11F4882352F0BB0F7B
S1132E2040F4BF2B11F460FF04C06F5F7F4F8F4FDE
S1132E309F4F089557FD9058440F551F59F05F3F19
S1132E4071F04795880F97FB991F61F09F3F79F0C8
S1132E5087950895121613061406551FF2CF46954A
S1132E60F1DF08C0161617061806991FF1CF8695CC
S1132E707105610508940895E894BB2766277727B0
S1132E80CB0197F908950BD0C4CFB5DF28F0BADF92
S1132E9018F0952309F0A6CFABCF1124EECFCADFEB
S1132EA0A0F3959FD1F3950F50E0551F629FF00159
S1132EB0729FBB27F00DB11D639FAA27F00DB11DB2
S1132EC0AA1F649F6627B00DA11D661F829F22273B
S1132ED0B00DA11D621F739FB00DA11D621F839FC2
S1132EE0A00D611D221F749F3327A00D611D231F98
S1132EF0849F600D211D822F762F6A2F11249F57E6
S1132F0050408AF0E1F088234AF0EE0FFF1FBB1F08
S1132F10661F771F881F91505040A9F79E3F5105A7
S1132F2070F060CFAACF5F3FECF3983EDCF3869558
S1132F3077956795B795F795E7959F5FC1F7FE2B52
S1132F40880F911D9695879597F90895FA01EE0FCC
S1132F50FF1F30962105310599F16115710561F462
S1132F608038BFE39B0749F168949038810561F08C
S1132F708038BFEF9B0741F0992342F5FF3FE105FD
S1132F803105210511F1E8940894E795D901AA23A4
S1132F9029F4AB2FBE2FF85FD0F310C0FF5F70F49D
S1132FA0A695E0F7F73950F019F0FF3A38F49F7717
S1132FB09F930CD00F9007FC905808953EF018CFC3
S1132FC060E070E080E89FE308954FE79F775F93A8
S1132FD04F933F932F939ED02F913F914F915F91A9
S1132FE052DF05C019F40EF0FDCE46CF01CF2ADF23
S1132FF0C8F39638C0F707F80F92E8942BE33AEA3F
S113300048EB5FE74EDF0F920F920F924DB75EB71A
S11330100F92C0D0E8E6F0E016D04F915F91EF91A7
S1133020FF91E595EE1FFF1F49F0FE57E068442726
S1133030EE0F441FFA95E1F74195550B32D00F90EE
S113304007FE26C00895DF93CF931F930F93FF923B
S1133050EF92DF927B018C01689405C0DA2EEF01B8
S11330601EDFFE01E894A591259135914591559176
S1133070AEF3EF018EDDFE019701A801DA9479F732
S1133080DF90EF90FF900F911F91CF91DF91089502
S11330909B01AC0160E070E080E89FE3CDCDA2CE5F
S11330A0ACC0D0DEE8F39923D9F3940F511DBBF3E0
S11330B09150504094F059F0882332F0660F771FF6
S11330C0881F91505040C1F79E3F510544F7880F27
S11330D0911D9695879597F908955F3FACF0983EBA
S11330E09CF0BB27869577956795B79508F4B160F2
S11330F09395C1F7BB0F58F711F460FFE8CF6F5FEA
S11331007F4F8F4F9F4FE3CFB8CE0EF076C070CE77
S1133110689468CE97DEC8F39923D1F3C6F3DF939E
S1133120CF931F930F93FF92C92FDD2788232AF093
S11331302197660F771F881FDAF720E030E040E818
S11331405FEB9FE3883920F0803E30F021968F7743
S11331500FDDE0E9F0E003C00BDDEDEBF0E073DF41
S11331608B01BE01EC01FB2E6F5771097595771F1A
S1133170880B990BFCDD28E132E741E35FE38FDE46
S1133180AF2D9801AE01FF900F911F91CF91DF9168
S113319000DD3FCEFA01DC01AA0FBB1F9B01AC018D
S11331A0BF5728F422273327442750781FC0B7512C
S11331B088F4AB2F0024469537952795011CA395D9
S11331C0D2F3002069F0220F331F441FB395DAF3C2
S11331D00DD0CDCC61307105A0E88A07B94630F432
S11331E09B01AC016627772788279078309621F0D9
S11331F0208331834283538308959F3F31F091505C
S113320020F4879577956795B795880F911D9695C6
S1133210879597F908950E94F821FC01918D228DDC
S1133220892F90E0805C9F4F821B91098F739927AF
S11332300895FC01918D828D981731F0828DE80FED
S1133240F11D858D90E008958FEF9FEF0895FC01A7
S1133250918D828D981761F0828DDF01A80FB11DC9
S11332605D968C91928D9F5F9F73928F90E00895ED
S11332708FEF9FEF0895FC01538D448D252F30E08F
S1133280842F90E0821B930B541710F0CF9608956F
S11332900197089589E99AE1892B41F08DE298E03C
S11332A0892B21F046D181110C942D080895FC013D
S11332B0848DDF01A80FB11DA35ABF4F2C91848DBB
S11332C090E001968F739927848FA689B7892C93F0
S11332D0A089B1898C9180648C93938D848D98138B
S11332E006C00288F389E02D80818F7D8083089554
S11332F0CF93DF93EC01888D8823C1F0EA89FB89A1
S1133300808185FD05C0A889B9898C9186FD0EC090
S11333100FB607FCF5CF808185FFF2CFA889B98964
S11333208C9185FFEDCFCE01C2DFE8CFDF91CF9145
S11333300895EF92FF920F931F93CF93DF93EC01C5
S113334081E0888F9B8D8C8D981305C0E889F9895D
S1133350808185FD23C0F62E0B8D10E00F5F1F4F7B
S11333600F731127E02E8C8DE8120BC00FB607FCEB
S1133370FACFE889F989808185FFF5CFCE0197DFFF
S1133380F2CF8B8DFE01E80FF11DE35AFF4FF0825F
S11333900B8FEA89FB898081806207C0EE89FF89EF
S11333A06083E889F98980818064808381E090E08A
S11333B0DF91CF911F910F91FF90EF900895CF92DD
S11333C0DF92EF92FF921F93CF93DF93EC016A0198
S11333D07B01122FE889F98982E080834115514EDF
S11333E061057105A9F060E079E08DE390E0A70143
S11333F09601D7D5DA01C9010197A109B109B6959A
S1133400A79597958795AC01411580E15807A0F0E1
S1133410E889F989108260E874E88EE190E0A701F8
S11334209601BFD5BA01A901415051096109710939
S11334307695679557954795EC85FD855083EE8580
S1133440FF854083188EEC89FD891083EA89FB8906
S1133450808180618083EA89FB89808188608083A0
S1133460EA89FB89808180688083EA89FB8980817D
S11334708F7D8083DF91CF911F91FF90EF90DF903C
S1133480CF9008951F920F920FB60F9211242F938D
S11334908F939F93EF93FF93E091C107F091C2073D
S11334A08081E091C707F091C80782FD12C0908126
S11334B08091CA078F5F8F732091CB07821751F0D9
S11334C0E091CA07F0E0EF54F84F958F8093CA0754
S11334D001C08081FF91EF919F918F912F910F9067
S11334E00FBE0F901F9018951F920F920FB60F9258
S11334F011242F933F934F935F936F937F938F93F5
S11335009F93AF93BF93EF93FF9381EB97E0CFDE4D
S1133510FF91EF91BF91AF919F918F917F916F91A7
S11335205F914F913F912F910F900FBE0F901F907D
S1133530189581EB97E071DE21E0892B09F420E0F6
S1133540822F0895E1EBF7E01382128288EE93E074
S1133550A0E0B0E084839583A683B78382EE95E0F0
S11335609183808385EC90E09587848784EC90E058
S11335709787868780EC90E0918B808B81EC90E03C
S1133580938B828B82EC90E0958B848B86EC90E01D
S1133590978B868B118E128E138E148E0895089538
S11335A051D2FDDF0E943707CAE4D9E10E944F07D8
S11335B02097E1F36FDEFACFCF92DF92EF92FF9282
S11335C00F931F93CF93DF936C017A018B01C0E0BB
S11335D0D0E0CE15DF0589F0D8016D918D01D601BB
S11335E0ED91FC910190F081E02DC6010995892BA4
S11335F011F47E0102C02196ECCFC701DF91CF9177
S11336001F910F91FF90EF90DF90CF900895611577
S1133610710579F0FB0101900020E9F73197AF01C2
S1133620461B570BDC01ED91FC910280F381E02DE8
S1133630099480E090E00895DC01ED91FC91DB01B8
S113364014964D915C9115976D917C910280F38154
S1133650E02D0994DCCFDC01ED91FC910190F08127
S1133660E02D099460EF75E0D2CF0F931F93CF93B1
S1133670DF93EC01E1DF8C01CE01F4DF800F911FB9
S1133680DF91CF911F910F9108950F931F93CF93C3
S1133690DF93EC01BCDF8C01CE01E4DF800F911FCE
S11336A0DF91CF911F910F9108958F929F92AF92C6
S11336B0BF92CF92DF92EF92FF920F931F93CF931B
S11336C0DF93CDB7DEB7A1970FB6F894DEBF0FBE78
S11336D0CDBF7C01D42EC52EDB0119A2223008F403
S11336E02AE08E010F5D1F4F822E912CA12CB12C4C
S11336F06D2D7C2DCD01A501940153D4D22EC32E62
S1133700DA01015011096A3071058105910510F43F
S1133710605D01C0695CF8016083232B242B252B99
S113372039F7B801C70173DFA1960FB6F894DEBF6D
S11337300FBECDBFDF91CF911F910F91FF90EF90FE
S1133740DF90CF90BF90AF909F908F900895CF92CD
S1133750DF92EF92FF920F931F93CF93DF93EC01CD
S11337606A017B012115310579F4E881F981019021
S1133770F081E02D642FDF91CF911F910F91FF9085
S1133780EF90DF90CF9009942A303105D9F477FF78
S113379018C06DE260DF8C0144275527BA014C192B
S11337A05D096E097F092AE0CE017FDF800F911F3A
S11337B0DF91CF911F910F91FF90EF90DF90CF9009
S11337C008952AE0B701A601CE01DF91CF911F91A0
S11337D00F91FF90EF90DF90CF9067CF9A01AB01EC
S11337E0770F660B770BB3CF0F931F93CF93DF93B2
S11337F0EC019A01AB01770F660B770BA8DF8C0104
S1133800CE0130DF800F911FDF91CF911F910F9177
S113381008954F925F926F927F928F929F92AF9290
S1133820BF92CF92DF92EF92FF92CF93DF93EC019E
S11338306A017B01B22E9A01AB01C701B601ADD377
S1133840882319F063EF75E024C026013701E8945A
S113385077F82FEF3FEF4FE75FE7C301B2019DD346
S113386081110CC02FEF3FEF4FE75FE7C301B201B7
S113387068D318161CF467EF75E00BC02FEF3FEF09
S11338804FE75FE4C701B60184D3181694F46BEFD5
S113389075E0CE01DF91CF91FF90EF90DF90CF9054
S11338A0BF90AF909F908F907F906F905F904F905C
S11338B0AECE2FEF3FEF4FE75FECC701B60141D328
S11338C087FDE5CF20E030E0A901C701B60139D377
S11338D087FF09C06DE2CE01BEDE4C01F7FAF09419
S11338E0F7F8F09402C0812C912CA12C60E070E0D8
S11338F080E09FE3AB1439F020E030E040E251E493
S11339009BD9A394F7CF9B01AC01C701B60130D971
S11339102B013C01FED96B017C0127DA9B01AC0130
S1133920C301B20124D92B013C012AE0B701A6014D
S1133930CE01BBDE7C01E80CF91CBB2029F06EE251
S1133940CE0189DEE80EF91EDB2CDD2001F120E03A
S113395030E040E251E4C301B20195DA2B013C01AD
S1133960D8D94B01A12CB12C2AE0B501A401CE0178
S11339709CDEE80EF91EC501B401F7D99B01AC0128
S1133980C301B201F4D82B013C01DA94DECFC701A4
S1133990DF91CF91FF90EF90DF90CF90BF90AF90E9
S11339A09F908F907F906F905F904F90089531CF4C
S11339B01F920F920FB60F9211242F933F938F9360
S11339C09F93AF93BF9380914F0890915008A0911B
S11339D05108B091520830914E0823E0230F2D373F
S11339E020F40196A11DB11D05C026E8230F0296FF
S11339F0A11DB11D20934E0880934F089093500849
S1133A00A0935108B09352088091530890915408A0
S1133A10A0915508B09156080196A11DB11D80933F
S1133A20530890935408A0935508B0935608BF9137
S1133A30AF919F918F913F912F910F900FBE0F9057
S1133A401F901895789484B5826084BD84B5816094
S1133A5084BD85B5826085BD85B5816085BDEEE692
S1133A60F0E0808181608083E1E8F0E01082808171
S1133A7082608083808181608083E0E8F0E08081DF
S1133A8081608083E1EBF0E0808184608083E0EBFF
S1133A90F0E0808181608083EAE7F0E080818460E7
S1133AA08083808182608083808181608083808143
S1133AB0806880831092C1000895833081F028F4D7
S1133AC0813099F08230A1F008958730A9F08830D0
S1133AD0B9F08430D1F4809180008F7D03C080914F
S1133AE080008F7780938000089584B58F7702C01B
S1133AF084B58F7D84BD08958091B0008F7703C015
S1133B008091B0008F7D8093B0000895CF93DF93B0
S1133B1090E0FC01E75CF94F2491FC01E35BF94F71
S1133B208491882361F190E0880F991FFC01E55985
S1133B30F94FC591D491FC01EF59F94FA591B49176
S1133B40611109C09FB7F8948881209582238883E6
S1133B50EC912E230BC0623061F49FB7F894388146
S1133B60822F809583238883EC912E2B2C939FBFE7
S1133B7006C08FB7F894E8812E2B28838FBFDF917E
S1133B80CF9108951F93CF93DF93282F30E0F9014D
S1133B90EB5DF94F8491F901E75CF94FD491F90198
S1133BA0E35BF94FC491CC23C1F0162F811185DF5B
S1133BB0EC2FF0E0EE0FFF1FEF59F94FA591B491F0
S1133BC08FB7F894111105C09C91ED2FE095E9236E
S1133BD002C0EC91ED2BEC938FBFDF91CF911F913D
S1133BE008950895FC0180819181A7C2CF93DF934A
S1133BF0EC0188819981009709F09FD2198218827B
S1133C001D821C821B821A82DF91CF9108950F932B
S1133C101F93CF93DF93EC018B016F5F7F4F8881FC
S1133C20998123D3009731F0998388831B830A8376
S1133C3081E001C080E0DF91CF911F910F91089541
S1133C40CF93DF93EC0188819981892B29F08A81B4
S1133C509B818617970758F4CE01D9DF882341F05A
S1133C608C819D81892B19F4E881F981108281E08E
S1133C70DF91CF910895EF92FF920F931F93CF930B
S1133C80DF93EC017B018A01BA01DADF811103C001
S1133C90CE01ACDF06C01D830C83B70188819981F6
S1133CA0C7D3CE01DF91CF911F910F91FF90EF9079
S1133CB00895FC01118210821382128215821482EB
S1133CC06115710549F0FB0101900020E9F7319776
S1133CD0AF01461B570BCFCF08950F931F93CF937C
S1133CE0DF938C01EB01FC01808191810097C1F08D
S1133CF0688179816115710591F021EF3DE1232BF4
S1133D0071F0428153812C813D814217530738F071
S1133D108FD38C819D81F8019583848312C00DD249
S1133D2088819981F801918380838A819B8193831F
S1133D3082838C819D8195838483198218821B825E
S1133D401A821D821C82DF91CF911F910F910895D9
S1133D50CF93DF93EC01FB018617970751F0608145
S1133D6071816115710521F04481558184DF01C0A1
S1133D703DDFCE01DF91CF910895FC0111821082C5
S1133D801382128215821482E3CFCF93DF93EC0166
S1133D908617970709F0A1DFCE01DF91CF9108952F
S1133DA0CF93DF93EC016115710551F0FB01019094
S1133DB00020E9F73197AF01461B570B5CDF01C0C8
S1133DC015DFCE01DF91CF910895EF92FF920F930B
S1133DD01F93CF93DF93FC01248135816115710515
S1133DE011F480E017C04115510599F07B01EC01F5
S1133DF08A01020F131FB80123DF882391F328815E
S1133E0039818C819D81B701820F931F11D31D834A
S1133E100C8381E0DF91CF911F910F91FF90EF9080
S1133E200895CF93DF9300D0CDB7DEB769831A82AC
S1133E3041E050E0BE016F5F7F4FC7DF0F900F90EE
S1133E40DF91CF910895CF93DF93FC0124813581D5
S1133E504217530778F4FB01DC01CD91DC916081BA
S1133E607181CE01840F951FEAD2009719F08C1B43
S1133E709D0B02C08FEF9FEFDF91CF91089540E03B
S1133E8050E0E1CFBF92CF92DF92EF92FF920F9377
S1133E901F93CF93DF937C016B018A01E9012417FF
S1133EA0350720F4812F8901C42FD82F67E375E0EB
S1133EB0C701FFDED60114968D919C9115970817C2
S1133EC01907C8F48C179D0708F4EC01D601ED918D
S1133ED0FC911197EC0FFD1FB08010824D915C9105
S1133EE0BA01600F711FC7015BDFD601ED91FC9130
S1133EF0EC0FFD1FB082C701DF91CF911F910F918D
S1133F00FF90EF90DF90CF90BF900895CF93DF9311
S1133F10FC01C081D181209739F08881882321F068
S1133F2090E075D28993F9CFDF91CF910895FC0188
S1133F3080819181009709F05FC260E070E0CB015D
S1133F40089503D008F481E00895990F0008550FEF
S1133F50AA0BE0E8FEEF16161706E807F907C0F00B
S1133F6012161306E407F50798F0621B730B840B13
S1133F70950B39F40A2661F0232B242B252B21F4ED
S1133F8008950A2609F4A140A6958FEF811D811D8D
S1133F900895DBDF08F48FEF0895D7DF880B990BC2
S1133FA00895A1E21A2EAA1BBB1BFD010DC0AA1F76
S1133FB0BB1FEE1FFF1FA217B307E407F50720F08E
S1133FC0A21BB30BE40BF50B661F771F881F991F09
S1133FD01A9469F760957095809590959B01AC0152
S1133FE0BD01CF010895A29FB001B39FC001A39F5B
S1133FF0700D811D1124911DB29F700D811D11241E
S1134000911D0895EE0FFF1F0590F491E02D099482
S1134010CF93DF938230910510F482E090E0E09139
S11340205908F0915A0820E030E0C0E0D0E0309721
S113403011F14081518148175907C0F048175907B9
S113404061F482819381209719F09B838A832BC02A
S113405090935A088093590826C02115310519F008
S11340604217530718F49A01BE01DF01EF010280E1
S1134070F381E02DDCCF2115310509F1281B390B23
S11340802430310590F412968D919C91139761150B
S1134090710521F0FB019383828304C090935A0835
S11340A080935908FD01329644C0FD01E20FF31FCD
S11340B081939193225031092D933C933AC02091DE
S11340C0570830915808232B41F420910201309174
S11340D00301309358082093570820910001309130
S11340E001012115310541F42DB73EB7409104017A
S11340F050910501241B350BE0915708F0915808A5
S1134100E217F307A0F42E1B3F0B2817390778F0AA
S1134110AC014E5F5F4F2417350748F04E0F5F1F09
S113412050935808409357088193919302C0E0E05C
S1134130F0E0CF01DF91CF9108950F931F93CF93B8
S1134140DF93009709F48CC0FC013297138212822A
S11341500091590810915A080115110581F4208124
S11341603181820F931F20915708309158082817E6
S1134170390779F5F0935808E093570871C0D801CE
S113418040E050E0AE17BF0750F412962D913C91D9
S11341901397AD012115310509F1D901F3CF9D0123
S11341A0DA013383228360817181860F971F82171E
S11341B0930769F4EC0128813981260F371F2E5F9C
S11341C03F4F318320838A819B8193838283452B54
S11341D029F4F0935A08E093590842C01396FC93CB
S11341E0EE931297ED01499159919E01240F351FC9
S11341F0E217F30771F480819181840F951F029671
S113420011969C938E938281938113969C938E93A3
S11342101297E0E0F0E0D80112968D919C911397EB
S1134220009719F0F8018C01F6CF8D919C919801BB
S11342302E5F3F4F820F931F2091570830915808EB
S11342402817390769F4309729F410925A08109204
S1134250590802C013821282109358080093570819
S1134260DF91CF911F910F910895A0E0B0E0EAE3B0
S1134270F1E27CC2EC01009719F4CB01C9DEB4C0B1
S1134280FC01E60FF71F9C0122503109E217F307E6
S113429008F4A8C0D9010D911C91119706171707AE
S11342A0A8F00530110508F49BC0C80104978617CF
S11342B0970708F495C002501109061B170B0193C8
S11342C011936D937C93CF0138DF8AC05B01A01AF0
S11342D0B10A4C01800E911EA0915908B0915A0860
S11342E040E050E0E12CF12C109709F44AC0A815E5
S11342F0B905D1F56D907C901197630182E0C80EE9
S1134300D11CCA14DB0480F1A3014A195B096A01B8
S113431082E0C80ED11C1296BC9012971396AC91F1
S1134320B5E0CB16D10440F0B282A383518340831D
S1134330D9016D937C930AC00E5F1F4FC301800F98
S1134340911FF90191838083EB2DFA2FE114F1047D
S113435031F0D7011396FC93EE93129741C0F0937A
S11343605A08E09359083CC08D919C9111974817C5
S1134370590708F4AC017D0112960D90BC91A02D53
S1134380B3CF809157089091580888159905E1F4A6
S113439046175707C8F480910001909101010097D6
S11343A041F48DB79EB74091040150910501841BDF
S11343B0950BE817F907B0F4F0935808E093570801
S11343C0F901718360830CC0CB0122DE7C0100976C
S11343D049F0A801BE0123D0CE01AFDEC70104C05D
S11343E0CE0102C080E090E0CDB7DEB7EEE0DAC1E6
S11343F081E090E0F894EDC1662777273AC09111E7
S11344008CC1803219F089508550D0F708959111EC
S1134410089581568A5108F4805285580895FB0105
S1134420DC0102C001900D9241505040D8F708952C
S1134430FB01DC0101900D920020E1F70895FB01DE
S113444051915523A9F0BF01DC014D91451741114C
S1134450E1F759F4CD010190002049F04D91401548
S11344604111C9F3FB014111EFCF81E090E00197C5
S11344700895A0E0B0E0EEE3F2E278C1EC017B0144
S11344806115710519F0DB018D939C938E010F5F0B
S11344901F4F7880872D90E0B2DF892B11F0E8015F
S11344A0F5CFBDE27B1205C00F5F1F4F7980C1E0DD
S11344B008C0EBE27E1204C08E010E5F1F4F7980AC
S11344C0C0E06801F1E0CF1AD10843E050E062EFA8
S11344D070E0C60125D1892BE9F4680122E0C20EFF
S11344E0D11C45E050E06DEE70E0C60119D1892B76
S11344F021F4680187E0C80ED11CE114F10419F01D
S1134500D701CD92DC92C111FBC060E070E080E87D
S11345109FE7FFC043E050E06AEE70E0C60100D1BF
S1134520892B51F4E114F10409F4EFC00E5F1F4F1D
S1134530F70111830083E9C0680160E070E0CB01FA
S113454000E010E0F601D0EDD70DDA3050F52C2F55
S11345502260622E2C2F2870C2FF05C0211127C0B3
S11345600F5F1F4F24C0222311F001501109A5E051
S1134570B0E09B01AC01ECD04B015C01880C991CB0
S1134580AA1CBB1CC501B4016D0F711D811D911DB9
S11345906839A9E97A078A07A9E19A0740F0C66051
S11345A005C0DE3F51F4C3FD44C0C8606C2EBFEFAC
S11345B0CB1ADB0A7080C62DC5CF2D2F2F7D253158
S11345C0C1F540814D3211F4C06106C04B3221F077
S11345D0319621E030E006C03296D60111964C9116
S11345E022E030E0A0EDA40FAA3018F0E21BF30B98
S11345F020C040E050E04038BCE05B075CF49A0126
S1134600220F331F220F331F420F531F440F551F16
S11346104A0F511D3196DF0111972C91A0EDA20F85
S1134620AA3048F3C4FF03C0519541955109040FC2
S1134630151FC1FF07C0E114F10421F03197D70120
S1134640ED93FC930E94B516C370C33019F06B014F
S11346507C0106C06B017C01F7FAF094F7F8F09442
S113466020E030E0A901C701B6016BDC882309F41E
S113467044C017FF06C0119501951109C9E0D1E0A6
S113468002C0C1E2D1E05E01B8E1AB1AB108460153
S1134690BE2DAF2D90E2E92EF12C0E151F0584F0EE
S11346A0FE012591359145915491B4018B2F9A2F98
S11346B00E9443174B01B82FA92F0E191F09EDCFE4
S11346C02497F594E794CA15DB0539F76401EB2EBA
S11346D0FA2E8E2D880F8F2D881F8F3F41F020E0FA
S11346E030E0A901C701B6012CDC811106C082E2C9
S11346F090E090935C0880935B08C701B60109C001
S113470060E070E080E89FEF04C060E070E080EC5F
S11347109FE7CDB7DEB7EEE045C099278827089517
S1134720FB01DC014150504088F08D9181341CF034
S11347308B350CF4805E659161341CF06B350CF4A0
S1134740605E861B611171F3990B0895881BFCCF81
S11347504ADCA59F900DB49F900DA49F800D911DE0
S1134760112408952F923F924F925F926F927F92FD
S11347708F929F92AF92BF92CF92DF92EF92FF926D
S11347800F931F93CF93DF93CDB7DEB7CA1BDB0B19
S11347900FB6F894DEBF0FBECDBF09942A883988BE
S11347A048885F846E847D848C849B84AA84B984C5
S11347B0C884DF80EE80FD800C811B81AA81B981D1
S11347C0CE0FD11D0FB6F894DEBF0FBECDBFED01E5
S11347D0089513E0CEE3D3E003C0FE0113DC219679
S10D47E0CF33D107D1F7F894FFCFCF
S11347EA00005D08200001000103070F1F3F7F003E
S11347FA80C0E0F0F8FCFE000000000000000000A9
S113480A000000000000000000000000000000009A
S113481A000000000000000000000000000000008A
S113482A000000000000000000000000000000007A
S113483A00000000000080808000000000000000EA
S113484A00000000000000008080C0C000000000DA
S113485A000000000000000000000000000000004A
S113486A000000000000000000000000000000003A
S113487A000000000000000000000000000000002A
S113488A000000000000000000000080C0E0F0F812
S113489AFCF8E00000000000000000000000000036
S11348AA000000008080808080008080000000007A
S11348BA808080808000FFFFFF00000000808080ED
S11348CA8000008080000080FFFF808000808000DC
S11348DA80808080008080000000000080800000CA
S11348EA8C8E84000080F8F8F88000000000000034
S11348FA00000000000000F0F0F0F0F0F0F0F0F03A
S113490AF0F0F0E0E0C08000E0FCFEFFFFFF7FFF74
S113491AFFFFFFFF0000000000000000000000008D
S113492A0000FEFFC70101010183FFFF00007CFEB6
S113493AC70101010183FFFFFF0038FEC78301019C
S113494A0183C7FFFF000001FFFF010100FFFF070A
S113495A01010100007FFF80000000FFFF7F0000CB
S113496AFFFFFF000001FFFFFF010000000000003D
S113497A00000000000000030F3F7F7FFFFFFFFFDE
S113498AFFFFFFE7C7C78F8F9FBFFFFFC3C0F0FFBB
S113499AFFFFFFFFFCFCFCFCFCFCFCFCF8F8F0F05D
S11349AAE0C0000103030303030103030000000042
S11349BA01030303030101030100000001030303CC
S11349CA03010103030000000303000000030300C2
S11349DA00000000000001030303030301000000B8
S11349EA01030100000003030100000000000000AD
S11349FA0000000000000000000080C0E0F0F9FFA1
S1134A0AFFFFFFFF3F1F0F87C7F7FFFF1F1F3DFC75
S1134A1AF8F8F8F87C7DFFFFFFFFFFFFFFFF7F3FF9
S1134A2A0F07003030000000000000000000000002
S1134A3A0000000000000000000000FEFEFC000070
S1134A4A0000000000000000000000000000000058
S1134A5A00000000E0C000000000000000000000A8
S1134A6A00303000000000000000000000000000D8
S1134A7A0000000000000000C0FEFFFFFFFFFFFF70
S1134A8AFFFFFF7F7F3F1F0F071F7FFFFFF8F8FF1E
S1134A9AFFFFFFFFFEF8E000000001000000000035
S1134AAA000000FEFE000000FCFEFC0C06060EFCE4
S1134ABAF80000F0F81C0E0606060CFFFFFF0000C3
S1134ACAFEFE00000000FCFEFC00183C7E66E6CEFA
S1134ADA84000006FFFF0606FCFEFC0C0606060020
S1134AEA00FEFE0000C0F8FC4E4646464E7C784066
S1134AFA183C76E6CECC80000000000000000000DE
S1134B0A000000000000000000000001070F1F1F42
S1134B1A3F3F3F3F1F0F030000000000000000005A
S1134B2A0000000F0F0000000F0F0F000000000F1D
S1134B3A0F000003070E0C18180C060F0F0F0000C5
S1134B4A010F0E0C180C0F070100040E0C180C0FA1
S1134B5A070000000F0F00000F0F0F0000000000F5
S1134B6A000F0F00000007070C0C181C0C060600A7
S1134B7A040E0C180C0F07000000000000000000CF
S1134B8A0000000000000000000000000000000017
S1134B9A0000000000000000000000000000000007
S1134BAA00000000000000000000000000000000F7
S1134BBA00000000000000000000000000000000E7
S1134BCA00000000000000000000000000000000D7
S1134BDA00000000000000000000000000000000C7
S1134BEA00000000000000000000000000000000B7
S1134BFA00000000000000413A006B703A006B6943
S1134C0A3A006B643A00583A00593A00503A00455F
S1134C1A52524F523A0009006D732D004C312064F0
S1134C2A6973636F6E6E656374004C3220646973D2
S1134C3A636F6E6E65637400523120646973636FC7
S1134C4A6E6E65637400523220646973636F6E6EAC
S1134C5A65637400000000009A0DDC1AF205A408CA
S1134C6A0B194F0950096F0957096309A5087F09E8
S1134C7A4E0B4D0B8009C509090A590A770AEE0A2F
S1134C8A000000009A0DDC1AF205A4082D114F0940
S1134C9A50096F0957096309A5087F094E0B4D0B83
S1134CAAD30F790E090A590A770AEE0A000000009E
S1134CBAEC14BD14F205BC1491149914AD1400003B
S1134CCA00009919DC1A3B1978190D1927191919B1
S1134CDA0D0A006E616E00696E66006F76660000EA
S9030000FC
